:020000040000FA
:06000000020B340202575E
:03002B000207FACF
:030043000207D5DC
:030053000201980F
:100083000201E6010105030101FF0F10FEFF6F2CC2
:1000930000000000072C00000000FF000000FF002C
:1000A300018F17951700009B170000000000000048
:1000B3000000000000A117B91700000000000000B5
:1000C300000000000000000000000000000000002D
:1000D300000000000000000000000000000000001D
:1000E300000000000000000000083C0500000010B4
:1000F30020202020202020202020202020202020FD
:10010300010804010304000893800414810020FD06
:1001130000020000211C000000000000051D00007B
:1001230000000000EB1B00000000000000000000C6
:10013300000000000000000000000000000006FFB7
:100143000101010402001C19000000E8030000FF84
:10015300FFE51903E803000064006400B801A0BBD5
:100163000D00A0BB0D00020200F8FF070502070403
:1001730001051E02051E020A0A0101020808010305
:10018300B80B02803E0102FEFFE8030A050001FFEF
:10019300FF0A1401E0C0E074F2120478A2AFE43362
:1001A300FED2AF85A708AFA1EF5508541060061221
:1001B300196375A1EFEF55085408600812196975A2
:1001C300A1F78013EFA2E092F0E508A2E082F050DD
:1001D30006121A2375A1FEEEF8EEA2E092AF7F019C
:1001E3000204D7C0E074F2120478A2AFE433FFD262
:1001F300AF9061A4E0FE759B00E5915E5408600832
:100203007591F71219BD8026E5915E54106008754B
:1002130091EF1219C38017E591A2E092F0EEA2E0EC
:1002230082F0500A9061A4E0C2E0F0121B139061C7
:10023300A3E0FEE5E95E5404600E121AE975E9FBDA
:10024300906193E0A2E640F2EFF8EFA2E092AF7F75
:10025300010204D7C0E074F2120478A2AFE433FEC3
:10026300D2AF9061A5E0FFE5BF5F5404600675BFA0
:10027300FB121B2BEEF8EEA2E092AF7F010204D734
:10028300C3E498F8E499F91202C48026C3E49AFA05
:10029300E49BFBE920E7E91202C4E498F8E499F946
:1002A30022C3E498F8E499F91202C4E498F8E499B3
:1002B300F9C3E49AFAE49BFB22EB20E7CFE920E7BA
:1002C300E0B90010BB0008E88AF084F8AAF022E441
:1002D300FBC8FA22EB70227B10C833C8C933C93379
:1002E3005007C39AC3DBF280069A50012ADBEAC89F
:1002F30033F4C8C933F4C9FA2275F008E4C833C823
:10030300C933C933C99AC99B5004C92AC93BD5F01B
:10031300ECFBC833F4C8E4C9FA22080808EAC0E0D1
:10032300EBC0E086F0E7A4FA180986F0E7A42AFAFE
:10033300180986F0E7A42AFA180986F0E7A42AFA2E
:100343001986F0E7A4FBE5F02AFA190886F0E7A47A
:100353002BFBE5F03AFA190886F0E7A42BFBE5F04E
:100363003AFA18180986F0E7A4C5F02BFBE43AFA29
:100373001908E7C5F0C6A426F6E5F03BFBE43AFA14
:100383001886F0E7A4F6E5F00826F6E43B08F6E461
:100393003A08F6D0E0FBD0E0FA22E4CFC0E0E4CEA6
:1003A300C0E0E4CDC0E0E4CCC0E075F020E626F682
:1003B30008E633F608E633F608E633F6181818ECC1
:1003C30033FCED33FDEE33FEEF33FFC3EC9709ED62
:1003D3009709EE9709EF97191919400FFFEC97FC4E
:1003E30009ED97FD09EE97FE191906D5F0BFECF755
:1003F30009EDF709EEF709EFF7191919D0E0FCD069
:10040300E0FDD0E0FED0E0FF222518C582C0E0E584
:100413001934FFC583C0E0E518C3958224F810AFF3
:10042300088583198582188008858319858218D2E7
:10043300AFCEF0A3E520F0A37808E608F0A3DEFA38
:10044300EFF0A3E58124FAF8E608F0A3E608F0A3A9
:10045300E608F0A30808E608F0A3E608F0A3158170
:100463001581D0E0FED0E0F8158115811581E8C033
:10047300E0EEC0E022C0D02518C582C0E0E5193403
:10048300FFC583C0E0E518C3958224F310AF088548
:1004930083198582188008858319858218D2AFC88D
:1004A300F0A3E9F0A3EAF0A3EBF0A37908E709F0DE
:1004B300A3D8FAECF0A3EDF0A3EEF0A3EFF0A3D0F2
:1004C300E0F0A3D0E0F0A3D0E0F0A3E520F0A3E5B3
:1004D300F0F0A322851983851882E0C0E0A3E0F938
:1004E300A3E0FAA3E0FBA37808E0F608A3DFFAE0B1
:1004F300FCA3E0FDA3E0FEA3E0FFA3E0C0E0A3E0D4
:10050300C0E0A3E0F5D0A3E0F520A3E0A3F5F0104D
:10051300AF08858319858218800885831985821819
:10052300D2AFD082D083D0E0F8D0E032120BD1B971
:10053300000302056EE4900301788879188002F0C5
:10054300A3D8FCD9FA7A887B1A90008678137902AB
:100553008015E493A3AD82AE838A828B83F0A3AA32
:1005630082AB838D828E83D8E9D9E7758200758348
:100573008074071208BF7582777583297400120887
:10058300BF75F0108E1A8F1B85821F85831E8518F9
:1005930082851983E0CEA3E0CF851F82851E83EB7E
:1005A300C9EAC8EDCBECCAC3E833C8E933C9EA33B7
:1005B300CAEB33CBC3EA9EF51DEB9FF51CB3500486
:1005C300AB1CAA1DEC33CCED33CDD5F0DAAE1AAFAC
:1005D3001B22D083D082ECC0E0EDC0E0E493A3FC07
:1005E300E493A3FDED4C600D1206ADEC24FFFCED8E
:1005F30034FFFD80EFE493A3FCE493A3FDED4C6093
:100603000D120780EC24FFFCED34FFFD80EFD0E0FA
:10061300FDD0E0FCE493A3C0E0E493C0E022D083E8
:10062300D082E9C0E0E493A3C386F0C5F095F0F966
:1006330008E493A386F0C5F095F0700BE493A3C38D
:10064300994005E9048002A3E475F002A42582F52C
:1006530082E5F03583F583D0E0F9E493A3C0E0E4C9
:1006630093C0E022851983851882E0A3FEE0A3F5F9
:10067300207808E0A3F608DFFAE0A3FFE0A3C0E0D8
:10068300E0A3C0E0E0A3C0E0E0A3C0E0E0A3C0E0DB
:1006930010AF0885821885831980088582188583A1
:1006A30019D2AFD083D0820208C5C0E0C3E49396C9
:1006B300087401939618400FE49366700808740158
:1006C30093661870007019A3A3C3E493960874018A
:1006D300939618A3A3400DD0E0D0E0D0E00206111A
:1006E300A3A3A3A3A3A3D0E022D083D082C5F0E425
:1006F30093A3C5F0C395F0F5F0E493A3C395F0403D
:1007030005E5F0048001E475F002A42582F582E595
:10071300F03583F583E493A3C0E0E493C0E022744F
:1007230004800474028000CCC0E0EDC0E0E518C38F
:100733009CCCAD1950011D10AF068C188D19800685
:100743008C188D19D2AF120841D0E0FDD0E0FC2205
:1007530074028000CCC0E0EDC0E0E518C39CCCADD2
:100763001950011D10AF068C188D1980068C188D39
:1007730019D2AF12081FD0E0FDD0E0FC22C0E0C0C8
:10078300F088F0E4936670080874019366187000AB
:10079300A8F0A3A3700BD0F0D0E0D0E0D0E0020625
:1007A30011A3A3D0F0D0E022D083D082CCC0E0E468
:1007B30093A360061208621470FAE493A36006120E
:1007C30009911470FAD0E0FCE493A3C0E0E493C071
:1007D300E022C0E074F2120478A2AFE433FED2AF99
:1007E300C2C0E5D1A2E450031218B5EEF8EEA2E0C0
:1007F30092AF7F010204D7C0E0C0D0E8C0E0E9C0F7
:10080300E0A2AFE433F8D2AFC2C7E8F9E8A2E092BE
:10081300AFD0E0F9D0E0F8D0D0D0E032CAC0E0E405
:1008230093A3C582CCC582C583CDC583F0A3C582FE
:10083300CCC582C583CDC583DAE5D0E0CA22CAC060
:10084300E0E0A3C582CCC582C583CDC583F0A3C533
:1008530082CCC582C583CDC583DAE6D0E0CA22C087
:10086300E0E493A3D39C5010E493A3C39C400AD029
:10087300E0D0E0D0E00207C8A3A3A3D0E022700930
:10088300080808226016181818C6C333C608C633EA
:10089300C608C633C608C633C6D5E0EA22C008C3B5
:1008A300E096F50808A3E096420808A3E0964208FC
:1008B30008A3E09645087001D3D00822C09FF59F96
:1008C300E473D09F22D083D082C09FE493C0E074AE
:1008D3000193C0E0740293F59F227404800A7403A9
:1008E3008006740280027401C0E0F404120913D07C
:1008F300E0120B712200C0D0251810AF08F5185074
:100903000C05198008F51850020519D2AFD0D02272
:100913002518F58210AF08F518400C15198008F555
:100923001840021519D2AF85198322BB0102E722B1
:10093300C082C08389828A83BB0003E08002E49380
:10094300D083D082226016080808C6C313C618C60F
:1009530013C618C613C618C613C6D5E0EA22C3E0E9
:10096300C696F608A3E0C696F608A3E0C696F60870
:10097300A3E0C696F6222518F8E43519F9222518BE
:10098300FAE43519FB222518FCE43519FD22C0E0F1
:10099300E493A36C7009D0E0D0E0D0E00207C8A3D1
:1009A300A3D0E022251810AF08F518400C151980C4
:1009B30008F51840021519D2AF22E066701008A39B
:1009C300E066700A08A3E066700408A3E06622C329
:1009D300E09608A3E09608A3E09608A3E096A2D2C7
:1009E30065D03322E76670100809E766700A0809C4
:1009F300E76670040809E76622C3E096F008A3E0FF
:100A030096F008A3E096F008A3E096F022C3E697D9
:100A1300F60809E697F60809E697F60809E697F651
:100A230022C3E4939608740193960874029396087C
:100A33007403939622E627F60809E637F60809E6D3
:100A430037F60809E637F622E026F608A3E036F67D
:100A530008A3E036F608A3E036F622700422600D00
:100A630018C6C333C608C633C6D5E0F41822E493C8
:100A7300F608740193F608740293F608740393F668
:100A830022E657F60809E657F60809E657F6080975
:100A9300E657F622E056F608A3E056F608A3E0561A
:100AA300F608A3E056F622E647F60809E647F608F5
:100AB30009E647F60809E647F622E026F008A3E030
:100AC30036F008A3E036F008A3E036F022E056F053
:100AD30008A3E056F008A3E056F008A3E056F0227E
:100AE300E4C396F608E496F608E496F608E496F668
:100AF30022600D08C6A2E713C618C613C6D5E0F3D5
:100B030022C6F4C608C6F4C608C6F4C608C6F4C6A8
:100B130022C3E7960809E7960809E7960809E796C6
:100B230022C3E09608A3E09608A3E09608A3E09604
:100B33002275D00075813F751801751903000205F0
:100B43002FE0F608A3E0F608A3E0F608A3E0F622F8
:100B5300600C08C6C313C618C613C6D5E0F422E654
:100B6300F008A3E6F008A3E6F008A3E6F022CAC063
:100B7300E0E6F0A308DAFAD0E0FA22E0F8A3E0F91D
:100B8300A3E0FAA3E0FB22E0FCA3E0FDA3E0FEA3C5
:100B9300E0FF22EAF0A3EBF0A3ECF0A3EDF022E0F8
:100BA300FAA3E0FBA3E0FCA3E0FD22ECF0A3EDF04D
:100BB300A3EEF0A3EFF022E8F0A3E9F0A3EAF0A399
:100BC300EBF022EAF888F9A2EA50FCC2EA22E5C770
:100BD30054F84401F5C77901222518F582E4351943
:100BE300F58322C2AF75D69F020000221208C89176
:100BF300A3021208C86BA5021208C828A90212088A
:100C0300C83CA9021208C846A9021208C850A90282
:100C13001208C85AA9021208C864A9021208C87D9A
:100C2300A9021208C887A9021208C8F4A902120867
:100C3300C8FFA9021208C827AA021208C832AA02CA
:100C43001208C897AA021208C8A1AA021208C8ACBF
:100C5300AA021208C8D0AA021208C8F4AA021208EB
:100C6300C866AB021208C8AFAB021208C8CBAB020E
:100C73001208C83CAC021208C888AC021208C8D1DA
:100C8300AC021208C80FAD021208C890AD021208D8
:100C9300C837AE021208C806B0021208C86BB00209
:100CA3001208C899B1021208C8BFB1021208C807D6
:100CB300B3021208C841B6021208C83FB8021208AC
:100CC300C80ABA021208C8A3BA021208C8A4BC020E
:100CD3001208C859BD021208C892BD021208C8F80A
:100CE300BD021208C802BE021208C82BC0021208B5
:100CF300C86AC1021208C8C1C1021208C86CC20284
:100D03001208C81CC4021208C869C5021208C8899F
:100D1300C5021208C8DEC5021208C8DFC6021208DF
:100D2300C807C7021208C866C7021208C85EC8020D
:100D33001208C8D5C8021208C8E8C9021208C85662
:100D4300CA021208C855CB021208C8AFCD02120856
:100D5300C8D8CD021208C83ECF021208C8C0D002BC
:100D63001208C817D1021208C8C5D1021208C86AEE
:100D7300D2021208C8C3D2021208C881D3021208D1
:100D8300C813D4021208C872D4021208C8B4D40219
:100D93001208C8E5D4021208C83CD6021208C800DB
:100DA30080031208C83280031208C86B800312083C
:100DB300C82982031208C86D82031208C84383033B
:100DC3001208C8A283031208C8B884031208C8040F
:100DD30085031208C89287031208C86C8A03120895
:100DE300C8B38B031208C84B8C031208C8578C0373
:100DF3001208C8A08C031208C8E28D031208C8D8D1
:100E03008E031208C8028F031208C8588F031208F2
:100E1300C8B18F031208C82490031208C85A92035A
:100E23001208C8DC93031208C8C794031208C81138
:100E330096031208C84998031208C8469B03120870
:100E4300C8559B031208C8E99B031208C8949C0366
:100E53001208C8D79C031208C83F9D031208C85B39
:100E63009D031208C88A9D031208C8C99D0312086E
:100E7300C8C49E031208C8739F031208C8F0A103D5
:100E83001208C822A3031208C8FAA3031208C87CD5
:100E9300A4031208C8B1A8031208C8E0A8031208E3
:100EA300C83BA9031208C86EA9031208C8E6A90320
:100EB3001208C819AA031208C87AAA031208C8CAD2
:100EC300AA031208C897AB031208C850AC03120850
:100ED300C814AD031208C88EAF031208C8F0B003DC
:100EE3001208C841B2031208C865B3031208C868E0
:100EF300B3031208C897B3031208C88FB5031208C7
:100F0300C84EB6031208C87DB6031208C80AB80350
:100F13001208C87AB8031208C80DB9031208C880AA
:100F2300B9031208C8A9BB031208C808BC031208F6
:100F3300C85CBC031208C88BBE031208C86EBF038B
:100F43001208C82AC0031208C83EC0031208C852B8
:100F5300C0031208C87FC0031208C8AFC003120839
:100F6300C8B6C2031208C862C3031208C8D0C303B9
:100F73001208C8F7C3031208C8BFC4031208C86520
:100F8300C5031208C8EBC6031208C876C7031208C4
:100F9300C8BDC7031208C82FC8031208C884C903F1
:100FA3001208C82DCA031208C861CA031208C879F7
:100FB300CA031208C81CCB031208C898CD03120831
:100FC300C840CF031208C85ECF031208C87CCF0302
:100FD3001208C848D0031208C896D3031208C8C21F
:100FE30081011208C8FA81011208C8FA86011208A1
:100FF300C84087011208C87688011208C8DB880137
:101003001208C8508A011208C85A8D011208C885EF
:101013008E011208C89898011208C828990112086D
:10102300C8129C011208C81F9D011208C8929D0195
:101033001208C8F69E011208C8D59F011208C843BA
:10104300A2011208C8D5A3011208C862A40112089C
:10105300C889A5011208C893A5011208C8BBA50138
:101063001208C85BA6011208C846A7011208C813D4
:10107300A8011208C830A8011208C859A80112080B
:10108300C886A8011208C8CDAA011208C89CAB01E2
:101093001208C8DBAB011208C85DAC011208C8FE18
:1010A300AC011208C830AD011208C877AD011208AF
:1010B300C8AAAD011208C8EEAD011208C83DAE01C1
:1010C3001208C842AE011208C89EAE011208C8E257
:1010D300AE011208C8BCAF011208C821B001120842
:1010E300C887B0011208C802B1011208C86AB40166
:1010F3001208C86DB5011208C8EBB6011208C80181
:10110300BA011208C8A3BA011208C8ECBC0112083C
:10111300C8A7BD011208C8E6BD011208C8BEBF01B9
:101123001208C8DBBF011208C8E4BF011208C8EDEA
:10113300BF011208C8F8BF011208C817C00112087E
:10114300C8BBC1011208C818C2011208C822C201D3
:101153001208C82CC2011208C88DC2011208C8D7D0
:10116300C2011208C8D8C3011208C82FC40112084B
:10117300C840C5011208C889C5011208C843C60181
:101183001208C85AC7011208C82FC8011208C87626
:10119300C9011208C87ACA011208C873CB01120820
:1011A300C88BCB011208C8C2CB011208C8CCCB0133
:1011B3001208C8D6CB011208C8E1CB011208C8FF38
:1011C300CB011208C847CC011208C8A5CC011208EC
:1011D300C8CCCC011208C8DECC011208C893CD01DB
:1011E3001208C8CCCD011208C8EECE011208C841BE
:1011F300CF011208C827D0011208C84ED001120827
:10120300C8BED0011208C83AD1011208C896D2014B
:101213001208C8BDD3011208C87FD4011208C84DF3
:10122300D5011208C80BD6011208C8F3D60112085B
:10123300C89DD7011208C805D8011208C8BAD80139
:101243001208C816D9011208C86ED9011208C83489
:10125300DA011208C857DA011208C812DB011208B2
:10126300C834DB011208C895DB011208C8C5DD01CB
:101273001208C8BEDE011208C86ADF011208C88B53
:10128300E1011208C8D4E1011208C81FE2011208E3
:10129300C87BE2011208C8D9E2011208C8FDE201C5
:1012A3001208C821E3011208C856E3011208C87ED8
:1012B300E3011208C8C3E3011208C817E4011208C6
:1012C300C870E4011208C86AE5011208C808E701FA
:1012D3001208C84DE7011208C876E7011208C8FFD3
:1012E300E7011208C872E8011208C880E801120871
:1012F300C8A4E8011208C8FAE8011208C815E901F0
:101303001208C8D0E9011208C8FCE9011208C83F55
:10131300EA011208C8A2EA011208C8B0EC011208D7
:10132300C8DCEC011208C897ED011208C87BEE0176
:101333001208C80FEF011208C80297061208C83A2C
:1013430097061208C85B97061208C89D97061208ED
:10135300C80198061208C80B98061208C81B9806FD
:101363001208C85298061208C8FB9B061208C8C385
:101373009D061208C8A79F061208C849A0061208AE
:10138300C8D3A0061208C85080041208C8F9800404
:101393001208C8D881041208C8E482041208C804D9
:1013A30083041208C82684041208C8D685041208C8
:1013B300C84386041208C81487041208C81A88048C
:1013C3001208C89288041208C8CD88041208C826D7
:1013D30089041208C86189041208C8AA890412087A
:1013E300C83E8A041208C8D48A041208C8A98B0408
:1013F3001208C87C8C041208C80A8D041208C8306D
:101403008D041208C85D8D041208C88E8D0412085D
:10141300C85B8E041208C86B8E041208C8BE8E0403
:101423001208C8CB8E041208C8D88E041208C8E16B
:101433008E041208C8458F041208C8A38F0412082B
:10144300C8EE8F041208C80990041208C83090042B
:101453001208C84D90041208C85990041208C8EA2B
:1014630091041208C80392041208C87F9204120858
:10147300C89292041208C8A292041208C8469304A0
:101483001208C8B294041208C8C595041208C865A6
:1014930096041208C86F96041208C8EE9604120840
:1014A300C8FF96041208C83E97041208C86C970434
:1014B3001208C83998041208C89098041208C8C9B9
:1014C30098041208C81F99041208C83D9904120809
:1014D300C88B99041208C8569A041208C8A49A041F
:1014E3001208C8F19A041208C8749B041208C89E13
:1014F3009B041208C8D49B041208C8E39B04120877
:10150300C8429C041208C8BA9C041208C8FB9C0475
:101513001208C84B9D041208C8769D041208C8908F
:101523009D041208C8AA9D041208C87F9E041208CD
:10153300C8899E041208C8C49E041208C8D49E0415
:101543001208C8259F041208C8399F041208C85BF3
:10155300A0041208C870A0041208C803A10412084A
:10156300C877A1041208C81CA2041208C827A20441
:101573001208C88AA3041208C8A6A3041208C8F252
:10158300A3041208C860A4041208C892A404120891
:10159300C8ACA4041208C80CA5041208C8ABA5045F
:1015A3001208C8F6A5041208C849A8041208C8E11D
:1015B300A8041208C858A9041208C8B5AB04120835
:1015C300C8CDAB041208C8D0AB041208C8DCAB0406
:1015D3001208C8F0AB041208C8F8AB041208C82FED
:1015E300AC041208C823AD041208C8ADAD04120838
:1015F300C82FAE041208C8AFAE041208C886AF04E1
:101603001208C8A8AF041208C841B0041208C89E43
:10161300B0041208C8A1B0041208C810B10412081B
:10162300C85CB2041208C86FB3041208C8FAB30442
:101633001208C80DB5041208C8D4B5041208C805A9
:10164300B6041208C82BB6041208C834B60412082C
:10165300C863B6041208C813B7041208C8C3B70492
:101663001208C836B8041208C8D9B8041208C84CFE
:10167300B9041208C88BB9041208C8D4B9041208F3
:10168300C8D0EF011208C874F0011208C8C3F001F2
:101693001208C842F1011208C8F4F1011208C80483
:1016A300F2011208C85DF5011208C816F801120804
:1016B300C871FC011208C8A9FC011208C8D7FC01B3
:1016C3001208C869FD011208C8BDFD011208C8F05F
:1016D300FD011208C819FE011208C867FE011208AD
:1016E300C8ECFE011208C8696B001208C8F16B0050
:1016F3001208C85B6C001208C8CF6C001208C8A19E
:101703006F001208C8C46F001208C81D70001208C9
:10171300C80F71001208C87971001208C83073002D
:101723001208C88B74001208C8FD74001208C8762A
:1017330075001208C84D76001208C8BE760012085C
:10174300C81E77001208C85B77001208C8F9770033
:101753001208C8C878001208C85679001208C8B021
:1017630079001208C8FA79001208C8FE7B00120833
:10177300C8287D001208C8517E001208C89EFE06C4
:101783001208C847FF061208C8A3FF061208C82795
:10179300ED061208C82AED061208C82DED06120838
:1017A300C830ED061208C828EE061208C881EE06F6
:1017B3001208C810F0061208C815F0061208C84629
:1017C30091071208C85791071208C82B92071208ED
:1017D300C8F77F001208C8DFFF011208C838930753
:1017E3001208C84893071208C86893071208C8F07C
:1017F30093071208C8D9F3061208C881F406120821
:10180300C8C3F6061208C8E2FF021208C813DB06B3
:101813001208C82BDB061208C864DC061208C814B9
:10182300DD061208C82FDD061208C84FDD061208B0
:10183300C89DDD061208C8B7DD061208C8D1DD064B
:101843001208C8E7DD061208C806DE061208C82714
:10185300DE061208C852DE061208C8A7DE06120802
:10186300C8C8E9061208C8E5E9061208C828EA0646
:101873001208C804EB061208C8E1EC061208C8F205
:10188300EC061208C80B95071208C84F8C061208FD
:10189300C8A78C061208C8AD8F061208C882900626
:1018A3001208C88B91061208C81993061208C8714A
:1018B30095061208C80F96061208C85F9606120806
:1018C300C86D96061208C88A96061208C8B396060B
:1018D3001208C8DC96061208C8EA96061208C85A07
:1018E300F7051208C894F7051208C827F905120866
:1018F300C892F9051208C8BEF9051208C8D7F90538
:101903001208C8F5F9051208C8ECFA051208C84C04
:10191300FC051208C82CFD051208C86DFE05120847
:10192300C8ABFE051208C8D6FE051208C801FF059C
:101933001208C82CFF051208C8578A071208C88066
:101943008A071208C8948A071208C8DE8A07120891
:10195300C8298B071208C8748B071208C8D78B07CE
:101963001208C8DA8B071208C8E88B071208C8F9EF
:101973008B071208C856E6061208C890E606120836
:10198300C8F8E6061208C826E7061208C873E70671
:101993001208C8B1E7061208C8ECE7061208C81611
:1019A300E8061208C83CE8061208C89FE8061208B1
:1019B300C8CDE8061208C863E9061208C87BE90621
:1019C3001208C890E9061208C84FFF011208C86C34
:1019D300FF011208C896FF011208C8B6B70612081D
:1019E300C85FB9061208C8669B021208C88DB906FB
:1019F3001208C8B6B9061208C813BA061208C86F87
:101A0300BA061208C804BB061208C889BB06120826
:101A1300C81ABC061208C80CBD061208C820BD06A9
:101A23001208C833BD061208C855BD061208C8FE01
:101A330093071208C82F94071208C8609407120866
:101A4300C88D94071208C881F0061208C8A8F006CA
:101A53001208C8D3F0061208C876F1061208C89B0C
:101A6300E2061208C8BEE2061208C855A30212080D
:101A7300C8DEE2061208C807E3061208C8BBA102C3
:101A83001208C83FE3061208C85AE3061208C81B27
:101A9300E4061208C898E4061208C8CFE406120840
:101AA300C824E5061208C879E5061208C8A7E506A2
:101AB3001208C8B5E5061208C8CFE5061208C843E0
:101AC300E6061208C88DFF031208C8008006120834
:101AD300C84980061208C87580061208C88E800699
:101AE3001208C8AE80061208C81881061208C85228
:101AF30081061208C8B186061208C8808806120833
:101B0300C8C688061208C83389061208C8EB8A06B5
:101B13001208C81B8B061208C8358B061208C84961
:101B23008B061208C89D8B061208C8008C06120883
:101B3300C8158C061208C80A8C071208C8218C071E
:101B43001208C84A8C071208C8708C071208C89D6F
:101B53008C071208C8CD8C071208C8EE8C07120830
:101B6300C8258D071208C84D8D071208C8BE9407F3
:101B73001208C8B4D2061208C8CBD2061208C83D50
:101B8300D4061208C872D4061208C89AD4061208DA
:101B9300C8C7D4061208C8E5D4061208C826D50655
:101BA3001208C8A4D5061208C8F9D5061208C84DEC
:101BB300D6061208C884D6061208C8C2D60612086A
:101BC300C81CD7061208C89784071208C8BA840726
:101BD3001208C83E85071208C83C86071208C85970
:101BE30086071208C8068F071208C88B88071208D1
:101BF300C80089071208C8198A071208C82AD70615
:101C03001208C857D7061208C87ED7061208C82379
:101C1300DA061208C83FFC061208C84FFE0612086F
:101C2300C880D7051208C8A0D8051208C8CFD805A0
:101C33001208C812D9051208C82AD9051208C89A69
:101C4300D9051208C8C6D9051208C833DA0512081F
:101C5300C86FDC051208C810DE051208C817DF05B7
:101C63001208C899DF051208C818E0051208C8CA87
:101C7300E0051208C85AE1051208C8A4E1051208D4
:101C8300C844E2051208C83FE3051208C8D7E305B4
:101C93001208C8EAE5051208C82FE7051208C88A22
:101CA300E7051208C8BBE7051208C816E8051208BD
:101CB300C880E8051208C8B1E8051208C8FBE805A2
:101CC3001208C853E9051208C8B8F9061208C8DB98
:101CD300F9061208C8D7FA061208C89AFB061208B2
:101CE300C8D5FB061208C8DCDE061208C85ADF0690
:101CF3001208C86ADF061208C894DF061208C898DB
:101D0300D6021208C8D5D6021208C8DCD8021208B7
:101D1300C84CD9021208C8C9D9021208C85CDA0231
:101D23001208C8EFDA021208C88ADB021208C81DBB
:101D3300DC021208C8D7DD021208C86ADE021208E4
:101D4300C8FDDE021208C87FDF021208C857E0028E
:101D53001208C8B2E0021208C88CE2021208C8AF27
:101D6300E3021208C8D2E4021208C886E502120888
:101D7300C82BE6021208C8D0E6021208C875E702AB
:101D83001208C825E8021208C8B3E8021208C86C92
:101D9300E9021208C8A6EA021208C8D8EB02120820
:101DA300C8D6EC021208C82EED021208C8C1ED0213
:101DB3001208C87FEE021208C8B1EE021208C8DF8B
:101DC300F1021208C880F2021208C8EEF2021208E9
:101DD300C85CF3021208C8F1F3021208C811F40236
:101DE3001208C81DF5021208C813F6021208C82A01
:101DF300F7021208C80CF8021208C839F9021208CF
:101E0300C8F6F9021208C8C6FA021208C894FB02FF
:101E13001208C8B086071208C8D086071208C80C73
:101E230088071208C80F88071208C83A90071208D3
:101E3300C85890071208C87790071208C838910746
:101E43001208C882E9051208C897E9051208C8F301
:101E5300E9051208C89BEA051208C8C4EA05120876
:101E6300C8E9EA051208C80DEC051208C81BEF05FE
:101E73001208C829EF051208C88BEF051208C8C954
:101E8300EF051208C8E4EF051208C87FF005120831
:101E9300C828F1051208C87BF1051208C8FEF10530
:101EA3001208C86EF2051208C8A7F2051208C83254
:101EB300F3051208C8C4F3051208C81BF405120879
:101EC300C879F4051208C88BF4051208C89DF405F7
:101ED3001208C8C3F4051208C8CCF4051208C81DBB
:101EE300F6051208C8B5F6051208C826F705120844
:101EF300C84DAA061208C8C5AB061208C870AC06BE
:101F03001208C898AC061208C8A9AC061208C8ACD7
:101F1300AF061208C8CCAF061208C8607F001208CB
:101F2300C8DEF6061208C823F7061208C870F706BB
:101F33001208C839F9061208C8BDBB051208C87DC6
:101F4300BD051208C8CCBD051208C843C005120858
:101F5300C8A8C0051208C8A9C3051208C80FC4053C
:101F63001208C843C6051208C82DC7051208C89031
:101F7300C7051208C820C8051208C8C6C805120834
:101F8300C81FC9051208C87EC9051208C8DDC905DE
:101F93001208C8A9CB051208C866CD051208C83CAB
:101FA300D0051208C87ED0051208C8E0D005120873
:101FB300C8F2D0051208C867D1051208C819D2059E
:101FC3001208C842D6051208C807D7051208C87FE9
:101FD30095071208C89A95071208C88EBD061208FD
:101FE300C8AEBD061208C8B4BE061208C800BF06B4
:101FF3001208C820BF061208C873BF061208C8E03B
:10200300BF061208C826C0061208C88AC0061208EE
:10201300C836C3061208C88F8D071208C82F8E074B
:102023001208C8938E071208C8D68E071208C8393B
:10203300E9041208C849E9041208C8DCE9041208D3
:10204300C8EFE9041208C8E4EA041208C83BEB0429
:102053001208C83DEC041208C850EC041208C80B5F
:10206300ED041208C8D1ED041208C818EE041208D2
:10207300C883EE041208C806F1041208C8D4F10498
:102083001208C8F1F1041208C818F9041208C89A12
:10209300FA041208C8A9FB041208C8CEFB041208EC
:1020A300C81FFC041208C855FC041208C865FD04C7
:1020B3001208C819FE041208C853FE041208C89C6B
:1020C300FE041208C844FF041208C8E5C806120833
:1020D300C8BDC9061208C8CBC9061208C850CB062A
:1020E3001208C85182071208C81383071208C85977
:1020F30083071208C8AA83071208C81384071208A3
:10210300C857FF051208C8739E051208C8359F05F6
:102113001208C8D69F051208C867A0051208C86A26
:10212300A1051208C861A2051208C8A7A2051208D2
:10213300C8F8A2051208C8DCA3051208C83BA40509
:102143001208C887A4051208C877A5051208C84D48
:10215300A6051208C8FBA6051208C824A70512087D
:10216300C86CA7051208C8B3A7051208C8FDA705C0
:102173001208C836A8051208C85EA9051208C8D2F5
:10218300AB051208C85EAC051208C8A7AC05120857
:10219300C842AD051208C8B5AD051208C82AAE0578
:1021A3001208C88AAE051208C816AF051208C8BFC0
:1021B300AF051208C889B0051208C8F0B0051208A7
:1021C300C82CB1051208C868B1051208C8A4B10526
:1021D3001208C8DFB2051208C83FB3051208C88742
:1021E300B3051208C8CFB3051208C8DDB405120839
:1021F300C831B5051208C801B6051208C868B60586
:102203001208C8D3B6051208C8ABB7051208C883AD
:10221300B8051208C810B9051208C89DB9051208F7
:10222300C84CBA051208C898BA051208C851BB05AC
:102233001208C8B4D3031208C8C7D3031208C83F8F
:10224300D4031208C8F2D4031208C8DBD603120859
:10225300C81FD8031208C8E7D8031208C801D90356
:102263001208C86DD9031208C8EBD9031208C8496C
:10227300DA031208C861DA031208C8C7DA031208BE
:10228300C843DB031208C8C9DB031208C815DD0302
:102293001208C87BDD031208C8B0DD031208C80B9F
:1022A300DE031208C8F1DE031208C831DF03120887
:1022B300C856DF031208C8ADDF031208C8F2DF03F4
:1022C3001208C8CBE0031208C8B5E1031208C8D648
:1022D300E1031208C836E2031208C89AE20312089F
:1022E300C807E3031208C83DE3031208C86EE603F8
:1022F3001208C8A4E6031208C83CE7031208C87B07
:10230300E7031208C818E8031208C83BE9031208D8
:10231300C89AE9031208C81DEA031208C838EB0378
:102323001208C83BEB031208C849EB031208C8683C
:10233300EB031208C888EB031208C817EC03120852
:10234300C858EC031208C878EC031208C8AFEC03B2
:102353001208C8DDEC031208C80CED031208C854B8
:10236300ED031208C8D4ED031208C80EEE031208D9
:10237300C818EE031208C877EE031208C8B7EE03B5
:102383001208C8F8EE031208C83BEF031208C8622C
:10239300EF031208C8C4EF031208C83EF003120883
:1023A300C87CF2031208C8B4F4031208C872F50318
:1023B3001208C88CF5031208C8A6F5031208C8450D
:1023C30092071208C85692071208C8D99207120832
:1023D300C8F2F5031208C840F6031208C8F6F6035C
:1023E3001208C8E7F8031208C818FE031208C8A1A8
:1023F300FE031208C882A1061208C8DBA106120850
:10240300C811A3061208C852A3061208C885A50658
:102413001208C8CEA5061208C824A6061208C8A129
:10242300A6061208C8BAA7061208C800A906120809
:10243300C825A9061208C88AA9061208C812AA063E
:102443001208C89A30001208C8BD30001208C8CE5E
:1024530030001208C85E31001208C8E131001208CA
:10246300C88732001208C86333001208C8F5330066
:102473001208C8A934001208C85D35001208C84CF8
:1024830036001208C81337001208C878370012083C
:10249300C8163E001208C8F240001208C83B4100AB
:1024A3001208C8C641001208C8C745001208C887E9
:1024B30046001208C88848001208C8FB49001208E1
:1024C300C8484B001208C8DB4B001208C8C14C00B7
:1024D3001208C8654D001208C8734D001208C86978
:1024E3004E001208C8E64F001208C808520012082E
:1024F300C86D55001208C8BC56001208C87B5B00A3
:102503001208C8DC5C001208C8DD5E001208C8555A
:1025130063001208C86A63001208C8F9650012084C
:10252300C80D67001208C8AC68001208C81169001A
:102533001208C89469001208C86A6A001208C80918
:10254300BA041208C8E4BA041208C88CBB041208FF
:10255300C8E8BB041208C8A9BC041208C85BBD04C0
:102563001208C8DEBF041208C84EC0041208C83ED1
:10257300C1041208C8D5C1041208C880C2041208D5
:10258300C8AAC3041208C8D3C7041208C824CA04BB
:102593001208C82ACB041208C8C5CE041208C8DB27
:1025A300CF041208C8C8D0041208C878D10412088E
:1025B300C820D2041208C8B1D4041208C853D604E0
:1025C3001208C8E7D6041208C83FD7041208C82A5D
:1025D300D8041208C8BCD8041208C8CED9041208FB
:1025E300C8C2DB041208C847DE041208C86DE00441
:1025F3001208C8F5E2041208C89BE4041208C86272
:10260300E5041208C80FE6041208C873E7041208A9
:10261300C80080051208C88D80051208C80281050C
:102623001208C85B81051208C80882051208C8ACE5
:1026330082051208C8FB82051208C86983051208BF
:10264300C82284051208C87184051208C8B3850519
:102653001208C80287051208C83C87051208C88EED
:1026630088051208C8A388051208C8CA8805120875
:10267300C8E689051208C8138A051208C82D8A05F9
:102683001208C8498A051208C87E8A051208C88F2D
:102693008A051208C8C08A051208C8DF8A0512080D
:1026A300C8EB8B051208C88E8C051208C8BD8C05B3
:1026B3001208C84F8D051208C8AE8D051208C83818
:1026C3008E051208C81091051208C82C920512082D
:1026D300C86993051208C80595051208C8C7960569
:1026E3001208C88598051208C89E98051208C8C123
:1026F30099051208C8A09A051208C8F39A0512088A
:10270300C80C9B051208C86F9C051208C8C89D0514
:102713001208C847C3061208C8C5C3061208C8B1C1
:10272300C4061208C893C5061208C801C6061208D3
:10273300C89AC6061208C89DC7061208C830C8063C
:102743001208C8FBCD061208C81DCE061208C87AA7
:10275300CE061208C8A8CE061208C8D2CE061208A2
:10276300C8F8CE061208C81CCF061208C842CF0606
:102773001208C855D0061208C8A1D0061208C8C945
:10278300D1061208C8D9D1061208C8F6D106120814
:10279300C813D2061208C826D2061208C879B10691
:1027A3001208C822B7061208C830B7061208C8357F
:1027B300B7061208C88280071208C89A8007120851
:1027C300C84E82071208C85395071208C8A5FF040C
:1027D3001208C8B5FF041208C8B9FB021208C8BE24
:1027E300FF051208C8AA95071208C8D3950712084F
:1027F300C8CF9A021208C85D9A021208C8389A0212
:102803001208C85499021208C87098021208C886A0
:1028130095021208C84394021208C8AA910212082A
:10282300C86591021208C80B91021208C86C900285
:102833001208C81790021208C8448F021208C87EF3
:102843008E021208C8428E021208C8D58D021208E1
:10285300C8CD8D021208C8428D021208C8D28C025C
:102863001208C8238C021208C8188C021208C8095F
:102873008C021208C8E88B021208C8B48B02120833
:10288300C88DA0021208C8888B021208C87DA00256
:102893001208C85B9F021208C8B49E021208C8A59A
:1028A3009E021208C8329E021208C8169E0212081F
:1028B300C8F89D021208C8E09C021208C85A8A028E
:1028C3001208C84E88021208C81F88021208C803DB
:1028D30088021208C8BB9C021208C8AD87021208FE
:1028E300C87487021208C8EC86021208C8A08602C0
:1028F3001208C8D0E2061208C85986021208C83A5C
:10290300A2021208C88C85021208C8108502120898
:10291300C86884021208C8C183021208C86383020C
:102923001208C83883021208C8E982021208C8AB29
:1029330082021208C88982021208C866820212083B
:10294300C84D82021208C80582021208C84F8102CC
:102953001208C8C380021208C85780021208C8238D
:10296300E3061208C80080021208C8CB9B021208B3
:10297300C86DB90600000080FBE473870001007E88
:102983001A35000400591B250002005D1B260002B6
:10299300005F1B27000200611B280001006B1B293D
:1029A3000001006C1B840004006D1B860001007194
:1029B3001B2A000100721B2B000100731B2C00015A
:1029C30000771B2D000800671A2E000100781B2FCB
:1029D300000100791B300001007A1B310001007BEC
:1029E3001B320001006F1A33000100701A3400011A
:1029F300007C1B36000100711A380001007D1B3971
:102A0300000100761B83000200941B630001007B1E
:102A13001A64000100741B65000100751B6D000141
:102A2300007C1A710008005F1A66000100931B43C3
:102A3300000100841B44000200851B450001008740
:102A43001B46000200881B47000800731A48000158
:102A5300008A1B4B0001008B1B04000100961BA185
:102A6300000100991B37000100981B8800010097A3
:102A73001B3C0001007E1B3D0001007F1B4900023F
:102A8300008C1B670001007D1A4D0002008E1B4E57
:102A9300000100901B4F000200911B3E00010083C8
:102AA3001B51000100801B52000100811B530001D8
:102AB30000821B54000100721A0000000000000095
:102AC3000136360101000102010001030100010486
:102AD30001060605020000070100340801000F0982
:102AE3000401010D0100FF0E080000170200001988
:102AF3000100FF1A0100011B0100FE1C0100081D5B
:102B03000200001F01000120010001210200002337
:102B130001000F24020000260100012701000828FC
:102B23000200FF2A0100072B0102402C0100002DA7
:102B33000100012E0100012F0100FF30010B1D31A7
:102B43000800003A0100083B01000F3C0100013D71
:102B53000100FF3E04000042040000460400004A56
:102B63000400004E04000052040000560400005A02
:102B730004000000002101000100210200000123E4
:102B83006600010123670002012368000301236932
:102B9300000401216A000501216B000601212C01BB
:102BA3000701212D010801212E010901212F010A0D
:102BB300012130010B012131010C0121C8000D015C
:102BC30021C9000E0121CA000F0121CB00100121F0
:102BD300CC00110121CD00120121CE0013012132BD
:102BE300011401213301150121CF00160121340104
:102BF300170121D000180121D100190121D2001A97
:102C03000121D30001037103010301030103010344
:102C13000103220302030103100300030003000363
:102C2300000300030003000342030003240306031D
:102C330000030003040312032503230325032303D3
:102C4300040304030003000300034403000300031D
:102C530023030003650321003503810300030503F8
:102C63000003000300030003250323030300710093
:102C73003001600011007000310220035004800015
:102C83001000610000001400630073007200620012
:102C930043000000130006000000000004001200BF
:102CA30000000000000000000400040037003700AB
:102CB3003C0244000000000000000000650000002A
:102CC30035008100000005000000830000000101C1
:102CD3007101010101011101010131010101010131
:102CE3008001100161013B00140063017301720153
:102CF300620143010001130106013D013500040196
:102D0300120100010001000100010401040133016B
:102D130033013C0144013201360000010001650129
:102D230000013500810100010501820183010001D9
:102D330003027102300160021102700201020202F9
:102D430002028002100261023A0041006302730230
:102D53007202620243020002130238000002000200
:102D63000402120200020002000200020402040232
:102D7300370037003C02440200023900000200021F
:102D8300650200023502810200020502820283020B
:102D930000020304710402046004110470040204B9
:102DA3000204010402041004610400041404630413
:102DB300730472046204430400041304060400044D
:102DC3000004040412040004000400040004510479
:102DD300640000040004000444040004000400042C
:102DE3000004650400043504810464000504000440
:102DF3008304000436000100060000000F000000F9
:102E03000000000000000000000003FFFF000004BA
:102E130003FFFF0000FFFF0FF4010005C4040320BC
:102E2300000100000B000000000000000003010F80
:102E3300000000000000000000000000000000008F
:102E4300000000000000000000000000000000007F
:102E5300000000000000000000000000000000006F
:102E6300000000000000000000000000000000005F
:102E73000000000000000000000000000000C5206A
:102E83004D200000000000000000000000000000D2
:102E9300000000000000000000000000000000002F
:102EA300000000000000000000000000000000001F
:102EB30081251300E5241F00EB241F80F12401006A
:102EC300812502006D240300732404007924050086
:102ED3007F2406008B243000A9243100A324320070
:102EE300B5243300BB243500C1243400C724360085
:102EF300CD241100D9241400DF2415009D24FFFFE5
:102F03000000000003002001C08100000000200138
:102F1300BF810000040042018280000005004201DD
:102F2300718000000600420160800000070020015C
:102F3300BE81000010004203F41A000011002003B8
:102F43004905000012001003051B030000002103C4
:102F53004A050A0000000200000004000000080007
:102F6300000010000000200000004000000080006E
:102F7300000000010000000200000004000000083F
:102F83000000001000000020000000400000011BB2
:102F930010064B100845100B5D1010510D02211047
:102FA3000539100727100C03100D0F10642D28FF8F
:102FB300000007ECFDFDFDECDCDCCCBCACAC9C9C68
:102FC3008C7C7C6C6C5C5C5C4C4C3C3C2C2C1C1CEE
:102FD30003EAF5E5D5D5C5B5A595958585757565DB
:102FE30065555545453535252515150500160F003D
:102FF300000B150B020002220F3300000E01030524
:1030030007090B0D0F00020406080A0C0D5A696725
:10301300426565416C6C69616E63653039303017A8
:10302300181921301B1D1F3000393D3F373C3C36FA
:103033002C442D303016181920231A1C1E300C0E68
:10304300020B040B0A0708000F00034A49434E18FA
:103053001A25050200011916181616182303000273
:103063000402010101010902E803000000BE040A91
:103073000E00000000007F00E8030C0A03030801B0
:1030830000040010FF1E1E03050C0C040428100589
:1030930008030900090A08C082C0839019DF74007D
:1030A300F0A37400F07C1D7D037AFC7B18122029A9
:1030B300122449D083D0820208C5C082C08312275C
:1030C300FD120D9FD083D0820208C574F412040C44
:1030D30089088A09EBFF8C0A7E12E508705D740289
:1030E3006509704179081223A7750B00780B120844
:1030F300E9E50AF50B780B1208E9EFF50B780B12EB
:1031030008E9901918120722901B71E0F97C737D6E
:103113001A901B94E0FAA3E0FB1228B77407120875
:10312300F8E9FE801674016509701079081223A767
:103133007B00EFFAEFF912288DE9FEEE601890811B
:10314300521207227A017B0090191CE0F9121FF337
:1031530074041208F8E97F0402066774F412040C7D
:1031630074FF1209A789098A087AD1A908121E9146
:103173008A0A8B0BAE0AAF0BEE4F704C7A027B00C0
:10318300121E738A0A8B0BAE0AAF0BEE4F700F7AC7
:10319300107B0090191CE0F9121EB5E980368E826F
:1031A3008F8374D1F0E509C0E08E828F83A3D0E0D2
:1031B300F0EEFAEFFBA908121E7FE9C0E085188242
:1031C300851983D0E0F0800CE509C0E08E828F83FF
:1031D300A3D0E0F074011208F87F0402066774F4C8
:1031E30012040C890890052AE0FEA3E0FF901B540B
:1031F300E064FF7004A3E064FF700F900836E0F80A
:103203007900901B54E8F0A3E9F0EE4F603E8E8204
:103213008F83A3A3E0F8A3E0F5838882E0601E8E8A
:10322300828F83A3A3E0F8A3E0F5838882A3E0F869
:10323300A3E0F5838882E0FAA9081224558E828FD1
:1032430083E0F8A3E0F9E8FEE9FF80BE901B54E0B9
:1032530064FF7004A3E064FF600D901B54E0FAA3C5
:10326300E0FBA9081224551211239018E6EAF0A3F3
:10327300EBF012111D8A0A8B0B850A82850B837F63
:103283000402066774F012040C890CEAFEEBFF8C4F
:103293000B7410120BDCE0F8A3E0F9E8FCE9FD7411
:1032A30012120BDCE0F8A3E0F988088909790078A9
:1032B30000E8C3950C400302335E750A00E50AC3B8
:1032C300950B400302335AAA0A7B00EA75F002A465
:1032D300CA85F00D75F000A4250DF50D75F002EB10
:1032E300A4250DFBEC2AF582ED3BF583E0F50EA357
:1032F300E0F50FE8FA7B00EA75F002A4CA85F00D49
:1033030075F000A4250DF50D75F002EBA4250DFB5A
:10331300EE2AF582EF3BF583E0650E7004A3E065CA
:103323000F702FE9FA7B00EA75F002A4CA85F00D4D
:1033330075F000A4250DF50D75F002EBA4250DFB2A
:10334300E5082AF582E5093BF583E50EF0A3E50FD1
:10335300F009050A0232C0080232B47F0802066788
:1033630074F312040C890C8C0A740D120BDCE0F854
:10337300A3E0F9E8FCE9FD750900E509C3950C50E4
:103383006A750800E508C3950A505CA8097900E846
:1033930075F002A4C8AEF075F000A42EFE75F0021D
:1033A300E9A42EF9EA28F582EB39F583E0FEA3E0E0
:1033B300FFA8087900E875F002A4C885F00B75F042
:1033C30000A4250BF50B75F002E9A4250BF9EC28F5
:1033D300F582ED39F583E06E7003A3E06F70047935
:1033E30001800A0508809D0509808F79007F050209
:1033F300066774F212040CEAFEEBFFEE2413F58267
:10340300E43FF583E0F8A3E0F5838882E0FA7B00EC
:10341300EE2413F582E43FF583E0F8A3E0F5838817
:1034230082A3E0F87900E4C8F9EA28F508EB39F556
:1034330009750A00750B009018E6E065087004A38F
:10344300E065097006750A21750B19E50A450B60DD
:1034530018780A1208E5AC08AD09EEFAEFFB12255D
:103463008774021208F8E98038750C02750D8078AC
:103473000C1208E578081208E5EE240EF582E43F05
:10348300F583E0FD7C80EE2402FAE43FFBEE240F9B
:10349300F582E43FF583E0F91225AB74041208F8D2
:1034A300E97F0602066774F212040CEAFEEBFFEEF4
:1034B3002413F582E43FF583E0F8A3E0F5838882E3
:1034C300E0FA7B00EE2413F582E43FF583E0F8A3F2
:1034D300E0F5838882A3E0F87900E4C8F9EA28F5E7
:1034E30008EB39F509750A00750B009018E6E065DD
:1034F300087004A3E065097006750A2E750B19E5BB
:103503000A450B6018780A1208E5AC08AD09EEFA13
:10351300EFFB12258D74021208F8E98038750C034D
:10352300750D80780C1208E578081208E5EE240E74
:10353300F582E43FF583E0FD7C80EE2402FAE43F6C
:10354300FBEE240FF582E43FF583E0F91225AB741B
:10355300041208F8E97F0602066774F312040C7478
:10356300FE1209A78A088B098518828519837400BE
:10357300F0A37400F0E5082413F582E43509F5831C
:10358300E0F8A3E0F5838882E0FA7B00E5082413E2
:10359300F582E43509F583E0F8A3E0F5838882A397
:1035A300E0F87900E4C8F9EA28FEEB39FFE50824DE
:1035B30013F582E43509F583E0F8A3E0F583888207
:1035C300A3A3E0F50C750B00750A00E50C60067407
:1035D300FF650C7005750A82802F9018E6E06E7007
:1035E30003A3E06F7020A90CAA18AB191216BDE94A
:1035F300F50B851882851983E0F8A3E0F9E8497093
:1036030008750A838003750A81851882851983E00A
:10361300FCA3E0FDA90AAA08AB09122593E9E50B6F
:10362300601D851882851983E0F8A3E0F9E84960F5
:103633000E851882851983E0FAA3E0FB121F337409
:10364300021208F87F0502066774F212040CEAFE00
:10365300EBFF750800750900EE2413F582E43FF5CE
:1036630083E0F8A3E0F5838882E0FA7B00EE24137D
:10367300F582E43FF583E0F8A3E0F5838882A3E0D5
:10368300F87900E4C8F9EA28F8EB39F9880A890BD4
:103693001211238A0C8B0DE50C650A7004E50D6588
:1036A3000B70131216CFE924FFF50879017AAB7B6F
:1036B300191216D58003750980EE240EF582E43FB6
:1036C300F583E0F50C780C1208E9750CAB750D1950
:1036D300780C1208E5E508F50C780C1208E9780A6D
:1036E3001208E5E509F50C780C1208E9EE2402FC52
:1036F300E43FFDEE240FF582E43FF583E0F97A051C
:103703007B8012259974071208F8E97F0602066781
:1037130074F512040C8909750800E508C39509506E
:103723004F8A828B83E0FE7F008A828B83A3E0F83B
:103733007900E4C8F9EE28FEEF39FFA8087900E81C
:1037430075F002A4C885F00A75F000A4250AF50AED
:1037530075F002E9A4250AF9EC28F582ED39F58321
:10376300EEF0A3EFF0EA2402FA50010B050880AA59
:103773007F0302066774E812040C74F61209A78A21
:10378300108B118518828519837400F07401120B54
:10379300DC7400F0A37400F0751600751700751241
:1037A30000751300E5102413F582E43511F583E069
:1037B300F8A3E0F9E8FEE9FF8E828F83E0FA7B004D
:1037C3008E828F83A3E0F87900E4C8F9EA28F8EB46
:1037D30039F97404120BDCE8F0A3E9F08E828F83CD
:1037E300A3A3E0FA7B008E828F83A3A3A3E0F879DF
:1037F30000E4C8F9EA28F8EB39F97406120BDCE89F
:10380300F0A3E9F0EE2404FE50010F7404120BDC64
:10381300E0FAA3E0FB1211BFE964017059E510243B
:103823000EF582E43511F583E0F50878081208E90E
:10383300E4F508F50978081208E575080078081218
:1038430008E99018E612072675088078081208E937
:10385300E5102402FCE43511FDE510240FF582E4A4
:103863003511F583E0F97A067B80122599740712E6
:1038730008F8E9023E0C7404120BDCE0FAA3E0FB47
:103883001211BFE9706F7404120BDCE0F8A3E0F9C6
:103893009018E6E0687003A3E0696059E510240E10
:1038A300F582E43511F583E0F50878081208E9E4B8
:1038B300F508F50978081208E57508007808120874
:1038C300E99018E612072675088078081208E9E5DA
:1038D300102402FCE43511FDE510240FF582E435D4
:1038E30011F583E0F97A067B801225997407120893
:1038F300F8E9023E0C8E828F83E0F50A8E828F8375
:10390300A3AE82AF83E50A6051AA0A7B00EA75F091
:1039130002A4CAA8F075F000A428F875F002EBA47D
:1039230028FB121F2D7401120BDCEAF0A3EBF074D9
:1039330001120BDCE0F8A3E0F9E849601D74011201
:103943000BDCE0FCA3E0FDEEFAEFFBA90A122485F1
:103953008A088B09AE08AF098003750A008E828F2F
:1039630083E0F50B8E828F83A3AE82AF83E50B607A
:1039730043AA0B7B00EA75F002A4CAA8F075F00015
:10398300A428F875F002EBA428FB121F2D8A088BDC
:1039930009850816850917E51645176017AC16AD96
:1039A30017EEFAEFFBA90B1224858A088B09AE08E0
:1039B300AF098003750B0090052AE0F8A3E0F988AE
:1039C300148915E51445157003023D168514828587
:1039D3001583A3A3E0F8A3E0F5838882E0700302D4
:1039E3003D06851482851583A3A3A3A3A3A3A3A341
:1039F300E0A2E04003023D06851482851583A3A35C
:103A0300A3A3E0F8A3E0F9E849603D851482851596
:103A130083A3A3E0F8A3E0F5838882E0FA79018524
:103A23001482851583A3A3A3A3E0F8A3E0F58388F9
:103A33008212297C8A088B0985081285091374036D
:103A4300120BDC7401F08024851482851583A3A3F3
:103A5300E0F8A3E0F5838882A3A3A3E0F8A3E0F949
:103A6300881289137403120BDC7400F0E5124513FA
:103A73007003023CF7851282851383A3E0F8A3E069
:103A8300F97406120BDCE0687003A3E06960137439
:103A930006120BDCE064FF7004A3E064FF60030222
:103AA3003CF77408120BDC74ABF0A37419F08512A5
:103AB30082851383A3A3A3A3A3A3A312072685121B
:103AC30082851383A3A3A3A3A3A3E0FC7403120B14
:103AD300DCE0FAA3E0FBA90A12246774021208F8D7
:103AE300E97038851282851383A3A3A3A3A3A3A399
:103AF300A3A3A3120726851282851383A3A3A3A3DB
:103B0300A3A3A3A3A3E0FCAA16AB17A90B122467D4
:103B130074021208F8E97003023CF775F002AA0B6D
:103B23007B00A80A7900EA28F8EB39F9E8A4240A0B
:103B3300F50FAA0F7B00121E738A0C8B0D850C08E0
:103B4300850D09E50845097003023CC8850882858F
:103B5300098374D2F0851082851183A3A3E0F8A3AF
:103B6300E0F9850882850983A3A3E8F0A3E9F0E5DA
:103B73000AC0E0850882850983A3A3A3A3D0E0F04C
:103B8300E50BC0E0850882850983A3A3A3A3A3A3B0
:103B9300A3D0E0F0E50A6060E508240AF8E43509FB
:103BA300F9850882850983A3A3A3A3A3E8F0A3E966
:103BB300F07401120BDCE0F50CA3E0F50D750E00BB
:103BC300780C1208E1AC0A7D00EC75F002A4CCA8D5
:103BD300F075F000A428F875F002EDA428FD85081F
:103BE30082850983A3A3A3A3A3E0FAA3E0FB121E88
:103BF3004974031208F88012850882850983A3A3F8
:103C0300A3A3A37400F0A37400F0E50B607FA80ADC
:103C13007900E875F002A4C8AAF075F000A42AFAA6
:103C230075F002E9A42AF9E50828F8E50939F9E865
:103C3300240AF8500109850882850983A3A3A3A355
:103C4300A3A3A3A3E8F0A3E9F085160C85170D75CC
:103C53000E00780C1208E1AC0B7D00EC75F002A4A9
:103C6300CCA8F075F000A428F875F002EDA428FDA7
:103C7300850882850983A3A3A3A3A3A3A3A3E0FA2F
:103C8300A3E0FB121E4974031208F880158508820D
:103C9300850983A3A3A3A3A3A3A3A37400F0A3747D
:103CA30000F0AA08AB09851482851583A3A3E0F865
:103CB300A3E0F5838882A3E0F8A3E0F5838882E09C
:103CC300F9121E7FE9851282851383E0C0E085180F
:103CD30082851983E0F879007408120BDCE028FA76
:103CE300A3E0398A82F583D0E0F0851882851983B1
:103CF300E02401F07403120BDCE06007AA12AB139B
:103D0300121F33851482851583E0F514A3E0F5159E
:103D13000239C6851882851983E0605EE510240E9A
:103D2300F582E43511F583E0F50878081208E975A2
:103D330008AB75091978081208E57403120BDCE067
:103D4300F50878081208E99018E6120726750800A6
:103D530078081208E9E5102402FCE43511FDE510AA
:103D6300240FF582E43511F583E0F97A067B80129E
:103D7300259974071208F8E980677404120BDCE0D4
:103D8300FAA3E0FB1211BFE97057E510240EF58288
:103D9300E43511F583E0F50878081208E97508ABF6
:103DA30075091978081208E575080078081208E9FA
:103DB3009018E612072675080078081208E9E5103E
:103DC3002402FCE43511FDE510240FF582E43511DE
:103DD300F583E0F97A067B8012259974071208F8B7
:103DE300E97401120BDCE0F8A3E0F9E849600D7413
:103DF30001120BDCE0FAA3E0FB121F33E5164517B3
:103E03006007AA16AB17121F33740A1208F87F1043
:103E130002066774F012040C74F41209A78A0A8B61
:103E23000BECFEEDFF740B120BDC7403F0EEFCEFF6
:103E3300FD740312098112202912111D8A088B09AE
:103E4300AC08AD097403120981122023E9601CEE4A
:103E53002413F582E43FF583E06403601AEE241330
:103E6300F582E43FF583E06401600C8518828519CF
:103E7300837484F002408F8E828F83A3A3A3A3A3B2
:103E8300A3A3A3E060398E828F83A3A3A3A3A3A3D9
:103E9300A3A3E064FF6028EE2413F582E43FF583D7
:103EA300E064037026EE2414F582E43FF583E060BA
:103EB3000EEE2414F582E43FF583E064FF700C8575
:103EC30018828519837482F002408FE50A240CF569
:103ED30082E4350BF583E064217004A3E0640060A1
:103EE30003024035851882851983748CF0EE241300
:103EF300F582E43FF583E064036003023FE4740169
:103F0300120989EE240BFAE43FFB120EB9E96003B0
:103F1300023FE41223958A0C8B0DA80CA90D880887
:103F23008909E849700302408F8E0C8F0D750E00CE
:103F3300780C1208E17C157D00AA08AB09121E4912
:103F430074031208F8850A82850B83A3A3E508246A
:103F530015FCE43509FD7409120841E50A240EF540
:103F630082E4350BF583E0C0E0E508241EF582E426
:103F73003509F583D0E0F0E50A240FF582E4350B2B
:103F8300F583E0C0E0E508241FF582E43509F583F5
:103F9300D0E0F0E5082420F582E43509F5837405C3
:103FA300F0EE240BFAE43FFB12174D8A0E8B0F85BC
:103FB3000E0C850F0D7D007C007900EE240BFAE4D6
:103FC3003FFB122551E99081521207227A007B10A0
:103FD30090191CE0F9121FF374041208F8E9024067
:103FE300E8EE2414F582E43FF583E0F5087808123F
:103FF30008E9EE240BFCE43FFD8E828F83A3A3A389
:10400300A3A3A3A3A3A3E0FAA3E0FB8E828F83A3BE
:10401300A3A3A3A3A3A3A3E0F9120E9B7401120805
:10402300F8E970688518828519837400F012236596
:10403300805AEE2414F582E43FF583E0F50878080E
:104043001208E9EE240BFCE43FFD8E828F83A3A3C9
:10405300A3A3A3A3A3A3A3E0FAA3E0FB8E828F836E
:10406300A3A3A3A3A3A3A3A3E0F9120EA174011214
:1040730008F8E9700E8518828519837400F01223FD
:104083006580098518828519837488F0E50A240EF2
:10409300F582E4350BF583E0F50878081208E97436
:1040A300011209798808890978081208E5E50A24C4
:1040B3000CF582E4350BF583E04400F508A3E044F6
:1040C30080F50978081208E57901E50A2402FCE481
:1040D300350BFDE50A240FFAE4350BFB1225457475
:1040E300051208F8E9740C1208F87F0802066774D1
:1040F300F612040C74F31209A78A088B09ECFEED7F
:10410300FF8518828519837400F07401120BDCE5B6
:1041130008F0A3E509F0EEFCEFFD7403120BDCAA33
:1041230082AB83122941AA18AB19122905E9740D30
:104133001208F87F0202066774F412040CEAFEEB1D
:10414300FFEE2413F582E43FF583E0F8A3E0F58363
:104153008882E0FA7B00EE2413F582E43FF583E0E6
:10416300F8A3E0F5838882A3E0F87900E4C8F9EACC
:1041730028F508EB39F509901929E05508F50AA344
:10418300E05509F50BE50A450B6033780A1208E59B
:104193009018E6120726EE240EF582E43FF583E03D
:1041A300FD7C00EE2402FAE43FFBEE240FF582E4EB
:1041B3003FF583E0F91225A574041208F8E97F049A
:1041C30002066774EA12040C74DB1209A78A148BC3
:1041D30015750E00750F00E5142413F582E43515EB
:1041E300F583E0F8A3E0F5838882E0F50AAC18AD27
:1041F300197A007B00799C1228FFE97A047900126E
:1042030028C9EAF512851882851983E02512F085FD
:104213001882851983E0F8E50AC3984003024566CE
:10422300851882851983E0C3950AF509E509C394C6
:10423300044003750903AA097B00EA75F01AA4CAAE
:10424300A8F075F000A428F875F01AEBA428FB1267
:104253001F2D8A108B1185100E85110FE50E450F4A
:104263007003024569750B00AE0EAF0F850A08E5B2
:104273000BC395094003024483E508C39512400329
:10428300024470AA087B001228458A108B118510FE
:104293000C85110D050890037CE0F8A3E0F98E82EC
:1042A3008F83E8F0A3E9F07C907D03EE2402FAE427
:1042B3003FFB122029850C82850D83E0F8A3E0F9EA
:1042C300EE2412F582E43FF583E8F0A3E9F0EE244F
:1042D30017F582E43FF5837402F0EE2418F582E4C7
:1042E3003FF58374FFF0850C82850D83A3A3A3A3FD
:1042F300A3A3A3A3A3A3E0C0E0EE2419F582E43FA4
:10430300F583D0E0F07401120BDC7400F0850C82AD
:10431300850D83E0F8A3E0F97402120BDCE8F0A347
:10432300E9F07401120981122917E9640170157407
:1043330004120BDCAC82AD83EE240AFAE43FFB12D9
:10434300202980107C087D0079FFEE240AFAE43FDF
:10435300FB121E55850C82850D83A3A3A3A3E070D6
:1043630064850C82850D83E0F8A3E0F9E849701AAF
:10437300EE2414F582E43FF5837400F0EE2418F57F
:1043830082E43FF5837400F08020EE2414F582E488
:104393003FF5837401F090038FE024FFC0E0EE2427
:1043A30018F582E43FF583D0E0F0EE2415F582E4BE
:1043B3003FF5837402F0EE2416F582E43FF583742F
:1043C30000F002446490038FE02401C0E0EE24185F
:1043D300F582E43FF583D0E0F0850C82850D83A35D
:1043E300A3A3A3E0C394035037EE2414F582E43F60
:1043F300F5837402F0850C82850D83A3A3A3A3E048
:104403006401700EEE2415F582E43FF5837400F029
:104413008043EE2415F582E43FF5837401F0803583
:10442300EE2414F582E43FF5837401F0850C828554
:104433000D83A3A3A3A3E06403700EEE2415F582FA
:10444300E43FF5837400F0800CEE2415F582E43F1D
:10445300F5837401F0EE2416F582E43FF5837401CD
:10446300F0EE241AFE50010F050B024272E512C34F
:10447300950A40057508008007E50AC39512F508FB
:10448300E50BC395094003024569740E120989AA15
:10449300087B0079871228FFE905087418120BDCE2
:1044A300E0F8A3E0F98E828F83E8F0A3E9F07C9033
:1044B3007D03EE2402FAE43FFB1220297410120B51
:1044C300DCAC82AD83EE240AFAE43FFB12202974AC
:1044D3000E120BDCE0F8A3E0F9EE2412F582E43FC0
:1044E300F583E8F0A3E9F0EE2415F582E43FF583C4
:1044F3007402F0EE2416F582E43FF5837403F0EEC4
:104503002417F582E43FF5837402F0EE2418F58254
:10451300E43FF58374FFF0741D120BDCE0C0E0EEA2
:104523002419F582E43FF583D0E0F0EE2412F582FE
:10453300E43FF583E0F8A3E0F9E849700EEE2414B4
:10454300F582E43FF5837400F0800CEE2414F582C9
:10455300E43FF5837401F0EE241AFE50010F050BBE
:1045630002448375090075100078101208E9780E6B
:104573001208E5E509F51078101208E9E50AF510C7
:1045830078101208E97405120BDCE0FD7C00E514D9
:104593002402FAE43515FBE514240FF582E43515FE
:1045A300F583E0F91225E174051208F8E9E50E45F3
:1045B3000F6007AA0EAB0F121F3374251208F87F82
:1045C3000E02066774F512040C74F91209A78A081F
:1045D3008B09E5082413F582E43509F583E0F8A394
:1045E300E0F9E8FEE9FF7904EEFAEFFB121E61EA57
:1045F300F8EBF9ECFAEDFB851882851983120BBAF7
:10460300EE2404FE50010F8E828F83E0C0E0740419
:10461300120BDCD0E0F08E828F83A3AE82AF838E49
:10462300828F83E0F50A7405120BDC7401F07406C3
:10463300120BDC7401F09018F07401F09018F97407
:1046430002F0850882850983A3A3E0F8A3E0F9902B
:1046530018F1E8F0A3E9F0E50A9018FAF0E5082468
:104663000FF582E43509F583E09018EFF0AA18AB53
:104673001912296BE960031228D574071208F87F11
:104683000302066774EE12040C74FF1209A7750B7C
:10469300007508007509001210518A108B118510DE
:1046A3000E85110F1210518A108B11AE10AF11EE3F
:1046B3004F6012050BEE2414F582E43FF583E0FE10
:1046C300A3E0FF80EA1210518A108B11AE10AF11D4
:1046D300EE4F60378E828F83E0F8A3E0F990037C7E
:1046E300E0687003A3E0696022EE2414F582E43FDE
:1046F300F583E0F8A3E0F9E8496010EE2414F582AD
:10470300E43FF583E0FEA3E0FF80C5EE4F60188E23
:10471300828F83E0F8A3E0F990037CE0687003A341
:10472300E06970030247EE7A167B00121F2D8A1090
:104733008B11851008851109E508450970030247A7
:10474300EE90037CE0F8A3E0F9850882850983E80D
:10475300F0A3E9F0900371E0C0E085088285098346
:10476300A3A3D0E0F01211A7E9C0E0850882850970
:1047730083A3A3A3A3A3D0E0F0901B72E0C0E085C2
:104783000882850983A3A3A3A3A3A3D0E0F07C900D
:104793007D03E508240BFAE43509FB122029AA1846
:1047A300AB19794112274FE9851882851983E06097
:1047B3000A9018E6E0F8A3E0F9800478FE79FF8513
:1047C3000882850983A3A3A3A3A3A3A3E8F0A3E972
:1047D300F0E5082414F582E43509F583E50EF0A32A
:1047E300E50FF085080E85090F050B9018FAE0F820
:1047F300E50BC3985005750A0080399018FAE0F864
:10480300E50BC398F50AE50AC394064003750A0548
:10481300750C009018FAE0F8E50CC3985016E50EF5
:104823002414F582E4350FF583E0F50EA3E0F50FCC
:10483300050C80DF750D00780D1208E9780E12085B
:10484300E5E50AF50D780D1208E99018FAE0F50D83
:10485300780D1208E9AD0B7C007AF17B189018EF04
:10486300E0F91225DB74051208F8E9E5084509604B
:1048730007AA08AB09121F331228D574011208F8CE
:104883007F0A02066774EE12040C74FF1209A78AEA
:104893000C8B0D7E00750E00750F00E50C2413F5CF
:1048A30082E4350DF583E0F8A3E0F5838882E0FF29
:1048B300AC18AD197A007B00799D1228FFE98518A1
:1048C30082851983E0F8EFC398400302499F851856
:1048D30082851983E0C39FFEEEC3940B40027E0AD8
:1048E300EEFA7B00EA75F007A4CAA8F075F000A4FD
:1048F30028F875F007EBA428FB121F2D8A108B11E3
:1049030085100E85110FE50E450F700302499D8535
:104913000E08850F09750A00E50AC39E507EAC0890
:10492300AD09AA0A7B00EFF87900EA28FAEB39FB14
:10493300798B1228FFE9850882850983A3A3A3A3A2
:10494300A3E0146008146015146022803085088287
:10495300850983A3A3A3A3A37400F0802E850882F3
:10496300850983A3A3A3A3A37401F0801E850882F2
:10497300850983A3A3A3A3A37402F0800E850882F1
:10498300850983A3A3A3A3A37403F0E5082407F570
:104993000850020509050A02491B7E00750B0078C1
:1049A3000B1208E9780E1208E5EEF50B780B1208E6
:1049B300E9EFF50B780B1208E97405120BDCE0FD47
:1049C3007C00E50C2402FAE4350DFBE50C240FF51D
:1049D30082E4350DF583E0F91225E774051208F832
:1049E300E9E50E450F6007AA0EAB0F121F337401E2
:1049F3001208F87F0A02066774EC12040C74FE12A4
:104A030009A78A0E8B0F751000751100E50E24138C
:104A1300F582E4350FF583E0F8A3E0F5838882E0BF
:104A2300F509AC18AD197A007B0079A3120EA7E93A
:104A3300A8097900851882851983E0FAA3E0FBC3EE
:104A4300E89AE99B5018851882851983A80979008B
:104A5300E0C398F8A3E099F9E8FEE9FF80047E003B
:104A63007F00C3EE9404EF940040047E037F00EEC6
:104A73004F6069EEFAEFFBEA75F015A4CAA8F0756A
:104A8300F000A428F875F015EBA428FB121F2D8A5B
:104A9300128B13851210851311E5104511603D75B6
:104AA300080085100C85110D750A00A80A7900C34A
:104AB300E89EE99F502DAC0CAD0DAA0A7B00A80916
:104AC3007900EA28FAEB39FB79A2120EA7E9E50C83
:104AD3002415F50C5002050D050A80CF75088B7E51
:104AE300007F00750B00780B1208E978101208E5B7
:104AF300EEF50B780B1208E9E509F50B780B1208B4
:104B0300E97405120BDCE0F8A3E0F9E8FDAC08E575
:104B13000E2402FAE4350FFBE50E240FF582E4358B
:104B23000FF583E0F91225ED74051208F8E9E51095
:104B330045116007AA10AB11121F3374021208F853
:104B43007F0C02066774F212040C74FF1209A7EAC1
:104B5300FEEBFFEE2413F582E43FF583E0F8A3E0D8
:104B6300F988088909EE2413F582E43FF583E0F818
:104B7300A3E0C82408F582C83400F583E0F50AA948
:104B83000AAA08AB0912289FE9C0E0851882851993
:104B930083D0E0F0750B00780B1208E97401120959
:104BA30079880C890D780C1208E5750C35750D8024
:104BB300780C1208E57901EE2402FCE43FFDEE24B3
:104BC3000FFAE43FFB12254574051208F8E9740156
:104BD3001208F87F0602066774F212040C74FA12C4
:104BE30009A78A088B09E5082413F582E43509F53A
:104BF30083E0FEA3E0FFEEFAEFFB12293BE9601727
:104C030012111D8A0C8B0DAC0CAD0DEEFAEFFB12DD
:104C13002023E96401700E7401120BDC7400F0A30D
:104C23007400F0800A7401120BDCEEF0A3EFF08E37
:104C3300828F83A3A3A3A3A3A3A3A3E0F50AE50AF7
:104C4300A2E650087403120BDC7401F0E50AA2E734
:104C530050087404120BDC7401F07405120BDC743D
:104C630000F07401120981122881E9C0E0851882DD
:104C7300851983D0E0F0750B00780B1208E97401F5
:104C8300120979880C890D780C1208E5750C3475B6
:104C93000D80780C1208E57901E5082402FCE4355F
:104CA30009FDE508240FFAE43509FB1225457405CF
:104CB3001208F8E974061208F87F0602066774F40E
:104CC30012040C74FF1209A7EAFEEBFFEE2413F59E
:104CD30082E43FF583E0F8A3E0F5838882E0F508FA
:104CE300EE2413F582E43FF583E0F8A3E0F583882F
:104CF30082A3E0F509A9081228B1E9C0E08518826A
:104D0300851983D0E0F0740165097006A90812269D
:104D13008FE9EE240BF582E43FF583E0703A750AE0
:104D230000780A1208E97401120979880A890B7854
:104D33000A1208E5750A36750B80780A1208E579B8
:104D430001EE2402FCE43FFDEE240FFAE43FFB12E4
:104D5300254574051208F8E974011208F87F040266
:104D63000667C082C083122695D083D0820208C50D
:104D730074F412040C74EF1209A7EAFEEBFFEE249D
:104D830013F582E43FF583E0F8A3E0F5838882E03E
:104D9300FA7B00EE2413F582E43FF583E0F8A3E009
:104DA300F5838882A3E0F87900E4C8F9EA28F508D6
:104DB300EB39F5099018E6E065087004A3E065098E
:104DC3007062A818A919880A890B780A1208E57570
:104DD3000A11750B00780A1208E57C007D007A81C0
:104DE3007B00121FC374041208F8E97037750A00B8
:104DF300780A1208E97401120979880A890B780A7A
:104E03001208E5AC08AD09EE2402FAE43FFBEE24F8
:104E13000FF582E43FF583E0F912259F740312082E
:104E2300F8E98038750A11750B80780A1208E5785D
:104E3300081208E5EE240EF582E43FF583E0FD7CDD
:104E430084EE2402FAE43FFBEE240FF582E43FF5FF
:104E530083E0F91225AB74041208F8E974111208FF
:104E6300F87F0402066774F112040C74EC1209A7AC
:104E73008A0A8B0BE50A2413F582E4350BF583E0EC
:104E8300F8A3E0F988088909850882850983E0FA8F
:104E93007B00850882850983A3E0F87900E4C8F9DB
:104EA300EA28F8EB39F9E8FEE9FF9018E6E06E70BE
:104EB30003A3E06F6003024F74850882850983A30F
:104EC300A3E0C394105015850882850983A3A3E04A
:104ED300C0E07403120BDCD0E0F080087403120B03
:104EE300DC7410F0850882850983A3858208858395
:104EF30009850882850983A3A3A982AA837B0089E4
:104F03000C8A0D8B0E780C1208E17406120BDCE090
:104F1300FC7D007407120BDCAA82AB83121E49745A
:104F2300031208F87403120979880C890D780C129E
:104F330008E5750C11750D00780C1208E57C007DF1
:104F4300007A817B00121FBD74041208F8E9740310
:104F5300120BDCE06009901921E0D2E4F0800790A5
:104F63001921E0C2E4F08518828519837400F0806A
:104F7300098518828519837484F0EEC0E0740112E8
:104F83000BDCD0E0F0EEC0E07402120BDCD0E0F0FA
:104F9300E50A240EF582E4350BF583E0F50C780C75
:104FA3001208E97401120979880C890D780C12082A
:104FB300E5750C14750D80780C1208E57903E50A84
:104FC3002402FCE4350BFDE50A240FFAE4350BFB60
:104FD30012254574051208F8E974141208F87F07BE
:104FE30002066774F412040C74E01209A7EAFEEBDC
:104FF300FF90037EE06408600B90037EE06404602E
:10500300030251FEAC18AD19EEFAEFFB12252D1277
:1050130012E57402120BDCAC82AD8385188285190C
:1050230083E0FAA3E0FB1211EFE96401700302517C
:10503300FE741812098112112F7402120BDCAC8258
:10504300AD837418120981122023E96037121129E4
:105053008A088B09A808A909851882851983E0683D
:105063007003A3E069601D851882851983E0F8A3A6
:10507300E0F9900372E8F0A3E9F07A727B03794BCD
:10508300122755E91211238A088B09A808A909EEEA
:105093002411F582E43FF583E0687003A3E06960BF
:1050A300747402120BDCAA82AB831228698A0A8BFE
:1050B3000B850A08850B09E5084509602B850882DD
:1050C300850983A3A3A3A3E06401600F85088285F8
:1050D3000983A3A3A3A3E06402700D7402120BDC83
:1050E300AA82AB8312285DE990040CE0F8A3E0F9EF
:1050F300E8496021901B83E064017019851882855B
:105103001983E0FAA3E0FB90040CE0F8A3E0F58335
:10511300888212297C7900851882851983E0FAA395
:10512300E0FB120D1BE990037CE0FCA3E0FD851876
:1051330082851983E0FAA3E0FB12129D740B120B14
:10514300DC7400F0851882851983E0F8A3E0F97414
:105153000C120BDCE8F0A3E9F0740B12098112299D
:1051630017E960407C087D007900741812098112E8
:105173001E55740E120BDCAC82AD837418120981B8
:10518300122023E9601E7402120BDCAC82AD83741F
:105193000E120BDCAA82AB83122941740B12098114
:1051A300122905E97402120BDCAC82AD83740E1272
:1051B3000BDCAA82AB83122941740B1209811229D9
:1051C30011E96037740C120BDCE0F8A3E0F98518E1
:1051D30082851983E0687003A3E069601E851882E5
:1051E300851983E0F8A3E0F9740C120BDCE8F0A353
:1051F300E9F0740B120981122905E974201208F8E9
:105203007F0402066774E812040C74F31209A7748E
:1052130002120BDCEAF0A3EBF07F007512007513AA
:10522300007402120BDCE0FAA3E0FB1225338A08B8
:105233008B09850816850917E5164517700302556E
:10524300637E00851682851783E0F8EEC3984003DA
:1052530002543078FF79FF7AFF7BFF880C890D8A2F
:105263000E8B0FEEF87900E875F00CA4C8AAF07560
:10527300F000A42AFA75F00CE9A42AF9E51628F53A
:1052830082E51739F583A3AA82AB831228698A08BA
:105293008B09850814850915E51445157003025417
:1052A3002C851482851583A3A3A3A3E06401601254
:1052B300851482851583A3A3A3A3E064026003027C
:1052C300542CE514241BF582E43515F583E06401C1
:1052D300702CE5142413F582E43515F58378081250
:1052E3000B44E5142417F582E43515F58378081289
:1052F300096185080C85090D850A0E850B0FEEF8EB
:105303007900E875F00CA4C8AAF075F000A42AFA95
:1053130075F00CE9A42AF9E51628F582E51739F5A5
:1053230083A3A3A3A3A3A3A3A3A3780C1208A050AE
:10533300030254007A0E7B00121F2D8518828519F3
:1053430083EAF0A3EBF0EEF87900E875F00CA4C85B
:10535300AAF075F000A42AFA75F00CE9A42AF9E57D
:105363001628F582E51739F583A3AC82AD8385183A
:1053730082851983E0FAA3E0FB1220298518828530
:105383001983E0F8A3E0C82408F582C83400F58344
:10539300780C120B62851882851983E0F8A3E0C8A4
:1053A300240CF582C83400F5837400F0A37400F074
:1053B300E51245137017851882851983E0F8A3E079
:1053C300F988108911851012851113802D85188293
:1053D300851983E0F8A3E0F9E510240CF582E435A0
:1053E30011F583E8F0A3E9F0E510240CF582E43528
:1053F30011F583E0F510A3E0F5110F802CEEF87999
:1054030000E875F00CA4C8AAF075F000A42AFA7598
:10541300F00CE9A42AF9E51628F582E51739F58396
:10542300A3AA82AB8312285DE90E025246EF7003F2
:1054330002555C740C120BDC7402F07402120BDC68
:10544300E0F8A3E0F5838882A3A3E0F8A3E0F9746E
:1054530004120BDCE8F0A3E9F07E00EFFA7B00EA2C
:1054630075F00CA4CAA8F075F000A428F875F00C28
:10547300EBA428FB121F2D8A0A8B0B850A08850BC8
:1054830009E5084509700302555CE51245137003ED
:10549300025526851210851311AC12AD13EEF8795F
:1054A30000E875F00CA4C8AAF075F000A42AFA75F8
:1054B300F00CE9A42AF9E50828FAE50939FB1220DA
:1054C30029851282851383A3A3A3A3A3A3A3A31252
:1054D3000B7EEEFC7D00EC75F00CA4CC85F00A7518
:1054E300F000A4250AF50A75F00CEDA4250AFDE5E4
:1054F300082CF582E5093DF583A3A3A3A3A3A3A3E6
:10550300A3120BBA0EE510240CF582E43511F583D2
:10551300E0F8A3E0F988128913AA10AB11121F3324
:1055230002548D750A00780A1208E9750A1F750B73
:1055330080780A1208E578081208E5EFF974091271
:1055430009897407120BDCE0240FFAA3E03400FB93
:1055530012257B74051208F8E9AA16AB17121F333C
:10556300740D1208F87F1002066774EA12040C8A9D
:10557300148B15AA14AB151225338A088B098508D9
:1055830012850913E512451370030256B77E008591
:105593001282851383E0F8EEC39840030256B07875
:1055A300FF79FF7AFF7BFF880C890D8A0E8B0FEE44
:1055B300F87900E875F00CA4C8AAF075F000A42AE5
:1055C300FA75F00CE9A42AF9E51228F582E51339F6
:1055D300F583A3AA82AB831228698A088B098508FD
:1055E30010850911E510451170030256AC85108230
:1055F300851183A3A3A3A3E06401601285108285B0
:105603001183A3A3A3A3E0640260030256ACE510D5
:10561300241BF582E43511F583E06401702CE51059
:105623002413F582E43511F5837808120B44E51051
:105633002417F582E43511F583780812096185088A
:105643000C85090D850A0E850B0FEEF87900E875B8
:10565300F00CA4C8AAF075F000A42AFA75F00CE9BE
:10566300A42AF9E51228F582E51339F583A3A3A348
:10567300A3A3A3A3A3A3780C1208A0502CEEF8793C
:1056830000E875F00CA4C8AAF075F000A42AFA7516
:10569300F00CE9A42AF9E51228F582E51339F5831C
:1056A300A3AA82AB8312285DE90E025592AA12AB1C
:1056B30013121F337F0E02066774F112040C74F683
:1056C3001209A7EAFEEBFF7508009019E1E0F8A3C1
:1056D300E0F9E84960030257617A377B00121F2D16
:1056E3009019E1EAF0A3EBF09019E1E0F8A3E0F9F7
:1056F300E84960317C377D0079009019E1E0FAA335
:10570300E0FB121E55EEFCEFFD9019E1E0FAA3E079
:10571300FB122503E9701A8518828519837488F0B2
:10572300750801800C8518828519837488F07508C3
:1057330001E5086003025A919019E1E0F8A3E0C87B
:10574300242EF582C83400F5837401F07C0F7D2587
:1057530090031BE0FAA3E0FB120DB1025A919019DA
:10576300E1E0F8A3E0C8242EF582C83400F5837481
:1057730002F0EEFCEFFD9019E1E02417FAA3E03408
:1057830000FB122503E9700C851882851983748840
:10579300F0750801750AAB750B19780A1208E590C4
:1057A30019E1E0F8A3E0C82429F582C83400F583A1
:1057B3001207269019E1E0F8A3E0C82428F582C86F
:1057C3003400F583E0FC9019E1E0F8A3E0C8241568
:1057D300F582C83400F583E0FAA3E0FB9019E1E019
:1057E300F8A3E0C82414F582C83400F583E0F91265
:1057F300246174041208F8E9C0E09019E1E0F8A309
:10580300E0C82431F582C83400F583D0E0F0901964
:10581300E1E0F8A3E0C82431F582C83400F583E061
:1058230070030258F19019E1E0F8A3E0C82431F5C0
:1058330082C83400F583E0FA7B00EA75F002A4CA5B
:10584300A8F075F000A428F875F002EBA428FB1269
:105853001F2D8A0A8B0BA80AA90B9019E1E0FAA362
:10586300E0CA2432F582CA3400F583E8F0A3E9F0F4
:105873009019E1E0F8A3E0C82432F582C83400F5BA
:1058830083E0F8A3E0F9E8496058750CAB750D198E
:10589300750E00780C1208E19019E1E0F8A3E0C856
:1058A3002431F582C83400F583E0FC7D00EC75F00B
:1058B30002A4CCA8F075F000A428F875F002EDA4BA
:1058C30028FD9019E1E0F8A3E0C82432F582C8343A
:1058D30000F583E0FAA3E0FB121E4974031208F8F3
:1058E300800C8518828519837488F0750801750A00
:1058F300AB750B19780A1208E59019E1E0F8A3E0FB
:10590300C82412F582C83400F5831207269019E1E2
:10591300E0F8A3E0C82411F582C83400F583E0FC65
:105923009019E1E0F8A3E0C8242CF582C83400F50F
:1059330083E0FAA3E0FB9019E1E0F8A3E0C8242B8D
:10594300F582C83400F583E0F91224617404120867
:10595300F8E9F8E8C0E09019E1E0F8A3E0C82434DE
:10596300F582C83400F583D0E0F09019E1E0F8A3A4
:10597300E0C82434F582C83400F583E07003025A8A
:105983004D9019E1E0F8A3E0C82434F582C834004F
:10599300F583E0FA7B00EA75F002A4CAA8F075F07B
:1059A30000A428F875F002EBA428FB121F2D8A0A25
:1059B3008B0BA80AA90B9019E1E0FAA3E0CA2435DE
:1059C300F582CA3400F583E8F0A3E9F09019E1E029
:1059D300F8A3E0C82435F582C83400F583E0F8A3C2
:1059E300E0F9E8496058750CAB750D19750E007830
:1059F3000C1208E19019E1E0F8A3E0C82434F58221
:105A0300C83400F583E0FC7D00EC75F002A4CCA85B
:105A1300F075F000A428F875F002EDA428FD9019A4
:105A2300E1E0F8A3E0C82435F582C83400F583E04B
:105A3300FAA3E0FB121E4974031208F8800C8518C0
:105A4300828519837488F0750801E508703490190C
:105A5300E1E0F8A3E0C82431F582C83400F583E01F
:105A630070149019E1E0F8A3E0C82434F582C83437
:105A730000F583E0600C7B007A007900122509E9C8
:105A8300800C8518828519837486F0750801E508F2
:105A93007003025B717409120BDC7402F08E828F47
:105AA30083A3A3E0F8A3E0F97401120BDCE8F0A3ED
:105AB300E9F08E828F83A3E0F50978091208E9746F
:105AC30001120979880A890B780A1208E5750A20F8
:105AD300750B80780A1208E579017406120989EEBC
:105AE300FAEFFB12254574051208F8E99019E1E075
:105AF300F8A3E0C8242EF582C83400F583E06402DD
:105B030070697409120BDC7402F09019E1E0F8A3D8
:105B1300E0F5838882A3A3E0F8A3E0F97401120BF4
:105B2300DCE8F0A3E9F09019E1E0F8A3E0F583885D
:105B330082A3E0F50978091208E97401120979884A
