:020000040000FA
:06000000020B08020228B9
:03002B000207CEFB
:030043000207A908
:030053000201693E
:100083000201B7010105030101FF0F10FEFF8B2BD6
:10009300000000005F2A00000000FF000000FF00D6
:1000A300010020FD000200006C1B000000000000A6
:1000B300501C0000000000000000000000000000D1
:1000C300000000000000000000000000000000002D
:1000D300000006FF102020202020202020202020A8
:1000E300202020202001080401000100056D80016B
:1000F3002F8146204C200000000000005820602182
:1001030000000000000000000000000000000000EC
:10011300000001010104002917000000E8030000AA
:10012300FFFFF417E803000064006400B801A0BBFC
:100133000D00A0BB0D00020200F8FF070502070433
:1001430001051E02051E020A0A0101020808010335
:10015300B80B02803E0102FEFFE8030A050001FF1F
:10016300FF010A1401E0C0E074F2120449A2AFE4F3
:1001730033FED2AF85A708AFA1EF55085410600630
:100183001218DE75A1EFEF5508540860081218E441
:1001930075A1F78013EFA2E092F0E508A2E082F0E8
:1001A300500612199E75A1FEEEF8EEA2E092AF7F03
:1001B300010204A8C0E074F2120449A2AFE433FFC1
:1001C300D2AF9061A4E0FE759B00E5915E54086098
:1001D300087591F71219388026E5915E541060086E
:1001E3007591EF12193E8017E591A2E092F0EEA20D
:1001F300E082F0500A9061A4E0C2E0F0121A8E90FF
:1002030061A3E0FEE5E95E5404600E121A6475E929
:10021300FB906193E0A2E640F2EFF8EFA2E092AF29
:100223007F010204A8C0E074F2120449A2AFE433D0
:10023300FED2AF9061A5E0FFE5BF5F540460067591
:10024300BFFB121AA6EEF8EEA2E092AF7F01020402
:10025300A8C3E498F8E499F91202958026C3E49AB6
:10026300FAE49BFBE920E7E9120295E498F8E499A4
:10027300F922C3E498F8E499F9120295E498F8E4B2
:1002830099F9C3E49AFAE49BFB22EB20E7CFE92038
:10029300E7E0B90010BB0008E88AF084F8AAF0226E
:1002A300E4FBC8FA22EB70227B10C833C8C933C9F8
:1002B300335007C39AC3DBF280069A50012ADBEA64
:1002C300C833F4C8C933F4C9FA2275F008E4C83353
:1002D300C8C933C933C99AC99B5004C92AC93BD574
:1002E300F0ECFBC833F4C8E4C9FA22080808EAC0F2
:1002F300E0EBC0E086F0E7A4FA180986F0E7A42A49
:10030300FA180986F0E7A42AFA180986F0E7A42A5E
:10031300FA1986F0E7A4FBE5F02AFA190886F0E754
:10032300A42BFBE5F03AFA190886F0E7A42BFBE5CA
:10033300F03AFA18180986F0E7A4C5F02BFBE43A63
:10034300FA1908E7C5F0C6A426F6E5F03BFBE43A44
:10035300FA1886F0E7A4F6E5F00826F6E43B08F67B
:10036300E43A08F6D0E0FBD0E0FA22E4CFC0E0E4C0
:10037300CEC0E0E4CDC0E0E4CCC0E075F020E626DA
:10038300F608E633F608E633F608E633F6181818E7
:10039300EC33FCED33FDEE33FEEF33FFC3EC970993
:1003A300ED9709EE9709EF97191919400FFFEC978D
:1003B300FC09ED97FD09EE97FE191906D5F0BFEC80
:1003C300F709EDF709EEF709EFF7191919D0E0FC72
:1003D300D0E0FDD0E0FED0E0FF222518C582C0E0CA
:1003E300E51934FFC583C0E0E518C3958224F810EE
:1003F300AF0885831985821880088583198582183B
:10040300D2AFCEF0A3E520F0A37808E608F0A3DE90
:10041300FAEFF0A3E58124FAF8E608F0A3E608F082
:10042300A3E608F0A30808E608F0A3E608F0A3157E
:10043300811581D0E0FED0E0F8158115811581E8A2
:10044300C0E0EEC0E022C0D02518C582C0E0E519A7
:1004530034FFC583C0E0E518C3958224F310AF08C9
:100463008583198582188008858319858218D2AF00
:10047300C8F0A3E9F0A3EAF0A3EBF0A37908E70936
:10048300F0A3D8FAECF0A3EDF0A3EEF0A3EFF0A302
:10049300D0E0F0A3D0E0F0A3D0E0F0A3E520F0A3F8
:1004A300E5F0F0A322851983851882E0C0E0A3E07C
:1004B300F9A3E0FAA3E0FBA37808E0F608A3DFFAC8
:1004C300E0FCA3E0FDA3E0FEA3E0FFA3E0C0E0A304
:1004D300E0C0E0A3E0F5D0A3E0F520A3E0A3F5F0AE
:1004E30010AF088583198582188008858319858252
:1004F30018D2AFD082D083D0E0F8D0E032120B9A7A
:10050300B9000302053FE49003017896791680024F
:10051300F0A3D8FCD9FA7A967B1890008678E47910
:10052300018015E493A3AD82AE838A828B83F0A30B
:10053300AA82AB838D828E83D8E9D9E77582A775AA
:1005430083FD740412089375826275832874001204
:100553000893E4730A75F0108E1A8F1B85821F852A
:10056300831E851882851983E0CEA3E0CF851F8281
:10057300851E83EBC9EAC8EDCBECCAC3E833C8E9EF
:1005830033C9EA33CAEB33CBC3EA9EF51DEB9FF5C0
:100593001CB35004AB1CAA1DEC33CCED33CDD5F00A
:1005A300DAAE1AAF1B22D083D082ECC0E0EDC0E0FC
:1005B300E493A3FCE493A3FDED4C600D120681ECE0
:1005C30024FFFCED34FFFD80EFE493A3FCE493A34D
:1005D300FDED4C600D120754EC24FFFCED34FFFDE0
:1005E30080EFD0E0FDD0E0FCE493A3C0E0E493C04F
:1005F300E022D083D082E9C0E0E493A3C386F0C5B0
:10060300F095F0F908E493A386F0C5F095F0700B2C
:10061300E493A3C3994005E9048002A3E475F002BF
:10062300A42582F582E5F03583F583D0E0F9E493E0
:10063300A3C0E0E493C0E022851983851882E0A378
:10064300FEE0A3F5207808E0A3F608DFFAE0A3FFB5
:10065300E0A3C0E0E0A3C0E0E0A3C0E0E0A3C0E00B
:10066300E0A3C0E010AF0885821885831980088550
:100673008218858319D2AFD083D082020899C0E053
:10068300C3E49396087401939618400FE49366703D
:100693000808740193661870007019A3A3C3E49348
:1006A30096087401939618A3A3400DD0E0D0E0D030
:1006B300E00205E5A3A3A3A3A3A3D0E022D083D0A4
:1006C30082C5F0E493A3C5F0C395F0F5F0E493A3DA
:1006D300C395F04005E5F0048001E475F002A4251C
:1006E30082F582E5F03583F583E493A3C0E0E493D8
:1006F300C0E0227404800474028000CCC0E0EDC02A
:10070300E0E518C39CCCAD1950011D10AF068C1841
:100713008D1980068C188D19D2AF120815D0E0FD03
:10072300D0E0FC2274028000CCC0E0EDC0E0E5180C
:10073300C39CCCAD1950011D10AF068C188D1980C8
:10074300068C188D19D2AF1207F3D0E0FDD0E0FC70
:1007530022C0E0C0F088F0E4936670080874019347
:1007630066187000A8F0A3A3700BD0F0D0E0D0E01F
:10077300D0E00205E5A3A3D0F0D0E022D083D0825D
:10078300CCC0E0E493A360061208361470FAE49335
:10079300A360061209651470FAD0E0FCE493A3C0C9
:1007A300E0E493C0E022C0E074F2120449A2AFE493
:1007B30033FED2AFC2C0E5D1A2E45003121830EE2B
:1007C300F8EEA2E092AF7F010204A8C0E0C0D0E837
:1007D300C0E0E9C0E0A2AFE433F8D2AFC2C7E8F9A2
:1007E300E8A2E092AFD0E0F9D0E0F8D0D0D0E03288
:1007F300CAC0E0E493A3C582CCC582C583CDC583BB
:10080300F0A3C582CCC582C583CDC583DAE5D0E02C
:10081300CA22CAC0E0E0A3C582CCC582C583CDC5C8
:1008230083F0A3C582CCC582C583CDC583DAE6D068
:10083300E0CA22C0E0E493A3D39C5010E493A3C383
:100843009C400AD0E0D0E0D0E002079CA3A3A3D051
:10085300E0227009080808226016181818C6C33366
:10086300C608C633C608C633C608C633C6D5E0EACB
:1008730022C008C3E096F50808A3E096420808A33F
:10088300E096420808A3E09645087001D3D00822F9
:10089300C09FF59FE473D09F22D083D082C09FE492
:1008A30093C0E0740193C0E0740293F59F22740433
:1008B300800A74038006740280027401C0E0F404A9
:1008C3001208E7D0E0120B452200C0D0251810AF64
:1008D30008F518500C05198008F51850020519D2AF
:1008E300AFD0D0222518F58210AF08F518400C15AB
:1008F300198008F51840021519D2AF85198322BB58
:100903000102E722C082C08389828A83BB0003E09D
:100913008002E493D083D082226016080808C6C3FD
:1009230013C618C613C618C613C618C613C6D5E011
:10093300EA22C3E0C696F608A3E0C696F608A3E04B
:10094300C696F608A3E0C696F6222518F8E43519EC
:10095300F9222518FAE43519FB222518FCE4351988
:10096300FD22C0E0E493A36C7009D0E0D0E0D0E0B6
:1009730002079CA3A3D0E022251810AF08F5184066
:100983000C15198008F51840021519D2AF22E0663C
:10099300701008A3E066700A08A3E066700408A359
:1009A300E06622C3E09608A3E09608A3E09608A3B6
:1009B300E096A2D265D03322E76670100809E76695
:1009C300700A0809E76670040809E76622C3E0961F
:1009D300F008A3E096F008A3E096F008A3E096F0F1
:1009E30022C3E697F60809E697F60809E697F6089C
:1009F30009E697F622C3E493960874019396087464
:100A0300029396087403939622E627F60809E637BD
:100A1300F60809E637F60809E637F622E026F6086F
:100A2300A3E036F608A3E036F608A3E036F6227014
:100A33000422600D18C6C333C608C633C6D5E0F416
:100A43001822E493F608740193F608740293F608E7
:100A5300740393F622E657F60809E657F60809E603
:100A630057F60809E657F622E056F608A3E056F6CD
:100A730008A3E056F608A3E056F622E647F608096F
:100A8300E647F60809E647F60809E647F622E026B0
:100A9300F008A3E036F008A3E036F008A3E036F050
:100AA30022E056F008A3E056F008A3E056F008A3AE
:100AB300E056F022E4C396F608E496F608E496F6C8
:100AC30008E496F622600D08C6A2E713C618C613FB
:100AD300C6D5E0F322C6F4C608C6F4C608C6F4C6F3
:100AE30008C6F4C622C3E7960809E7960809E796FD
:100AF3000809E79622C3E09608A3E09608A3E096C8
:100B030008A3E0962275D00075813F751801751909
:100B13000300020500E6F008A3E6F008A3E6F008E8
:100B2300A3E6F022600C08C6C313C618C613C6D5C5
:100B3300E0F422E0F608A3E0F608A3E0F608A3E059
:100B4300F622CAC0E0E6F0A308DAFAD0E0FA22E817
:100B5300F0A3E9F0A3EAF0A3EBF022E0F8A3E0F9B5
:100B6300A3E0FAA3E0FB22ECF0A3EDF0A3EEF0A3E5
:100B7300EFF022E0FCA3E0FDA3E0FEA3E0FF22EA06
:100B8300F0A3EBF0A3ECF0A3EDF022E0FAA3E0FB7B
:100B9300A3E0FCA3E0FD22E5C754F84401F5C779BF
:100BA30001222518F582E43519F58322C2AF75D6E3
:100BB3009F0200002212089C4DA30212089C68A405
:100BC3000212089CA4A40212089C7EA60212089C8E
:100BD3003BAA0212089C4FAA0212089C59AA0212AD
:100BE300089C63AA0212089C6DAA0212089C86AA9A
:100BF3000212089C90AA0212089CFDAA0212089CE9
:100C030008AB0212089C30AB0212089C3BAB0212E9
:100C1300089CA0AB0212089CABAB0212089CCFABA2
:100C23000212089CF3AB0212089C65AC0212089CEA
:100C3300AEAC0212089CCAAC0212089C3BAD021275
:100C4300089C87AD0212089CD0AD0212089C0EAE20
:100C53000212089C8FAE0212089C36AF0212089C47
:100C630005B10212089C6AB10212089C98B20212E2
:100C7300089CBEB20212089C06B40212089C40B73C
:100C83000212089C3EB90212089C09BB0212089C7E
:100C9300A2BB0212089CA3BD0212089C58BE0212FA
:100CA300089C91BE0212089CF7BE0212089C01BF69
:100CB3000212089C2AC10212089C69C20212089CF3
:100CC300C0C20212089C6BC30212089C1BC502120D
:100CD300089C68C60212089C88C60212089CDDC6DE
:100CE3000212089CDEC70212089C06C80212089C66
:100CF30065C80212089C5DC90212089CD4C902127D
:100D0300089CE7CA0212089C55CB0212089C54CCDB
:100D13000212089CAECE0212089CD7CE0212089C87
:100D23003DD00212089CBFD10212089C16D20212B7
:100D3300089CC4D20212089C69D30212089CC2D335
:100D43000212089C80D40212089C12D50212089C3D
:100D530071D50212089CB3D50212089CE4D5021285
:100D6300089C3BD70212089C00800312089C328027
:100D73000312089C6B800312089C29820312089CAF
:100D8300FF820312089C5E830312089C748403127F
:100D9300089CC0840312089C4E870312089C288A6F
:100DA3000312089C6F8B0312089C078C0312089C88
:100DB300138C0312089C5C8C0312089C9E8D0312F7
:100DC300089C948E0312089CBE8E0312089C148FF9
:100DD3000312089C6D8F0312089CE08F0312089C7A
:100DE30016920312089C98930312089C839403128F
:100DF300089CCD950312089C05980312089C029B3E
:100E03000312089C119B0312089CA59B0312089CC8
:100E1300509C0312089C939C0312089CDC9C0312B5
:100E2300089C2C9D0312089C909D0312089C029E13
:100E33000312089C1E9E0312089C4D9E0312089CDD
:100E43008C9E0312089C879F0312089C36A00312F2
:100E5300089CB3A20312089CE5A30312089CBDA43B
:100E63000312089C3FA50312089C74A90312089C53
:100E7300A3A90312089CFEA90312089C31AA03121A
:100E8300089CA9AA0312089CDCAA0312089C3DAB88
:100E93000312089C8DAB0312089C5AAC0312089CE6
:100EA30013AD0312089CD7AD0312089C51B0031273
:100EB300089CB3B10312089C04B30312089C28B422
:100EC3000312089C2BB40312089C5AB40312089C07
:100ED30052B60312089C11B70312089C40B70312C1
:100EE300089C5EB80312089C26B90312089CE4BA56
:100EF3000312089C16BB0312089C58BB0312089CE0
:100F030057BC0312089CCABC0312089CF3BE03120D
:100F1300089C52BF0312089CA6BF0312089CD5C1AC
:100F23000312089CB8C20312089C74C30312089CE2
:100F330088C30312089C9CC30312089CC9C30312F1
:100F4300089CF9C30312089CB4C50312089CC6C6C7
:100F53000312089C1BC70312089C64C70312089C56
:100F63008BC70312089C53C80312089CF9C80312C9
:100F7300089C7FCA0312089CC6CA0312089C38CB7C
:100F83000312089C8DCC0312089C36CD0312089CD7
:100F93006ACD0312089C82CD0312089C25CE03124E
:100FA300089CA1D00312089C49D20312089C67D263
:100FB3000312089C85D20312089C51D30312089C88
:100FC3009FD60312089C35810112089C6D81011282
:100FD300089C6D860112089CB3860112089CE98760
:100FE3000112089C4E880112089CC3890112089CB7
:100FF300CD8C0112089CF68D0112089C09980112F0
:10100300089C99980112089C839B0112089C909C50
:101013000112089CF39C0112089C3B9E0112089C40
:10102300A9A00112089C3BA20112089CC8A20112AC
:10103300089CE7A30112089C74A40112089C7EA4D7
:101043000112089CA6A40112089C46A50112089C43
:1010530031A60112089CFEA60112089C1BA70112CF
:10106300089C44A70112089C71A70112089CB8A907
:101073000112089C87AA0112089CC6AA0112089CA7
:1010830048AB0112089CE9AB0112089C1BAC01128E
:10109300089C62AC0112089C95AC0112089CD9AC67
:1010A3000112089C28AD0112089C2DAD0112089C69
:1010B30089AD0112089CCDAD0112089CA7AE0112A7
:1010C300089C0CAF0112089C72AF0112089CEDAF93
:1010D3000112089C55B30112089C58B40112089CD4
:1010E300D6B50112089CECB80112089C8EB9011206
:1010F300089CD7BB0112089C92BC0112089CD1BC6E
:101103000112089CA9BE0112089CC6BE0112089CCC
:10111300CFBE0112089CD8BE0112089CE3BE011287
:10112300089C02BF0112089CA6C00112089C03C1BF
:101133000112089C0DC10112089C17C10112089CE1
:1011430076C10112089CC0C10112089CC1C20112E0
:10115300089C18C30112089C29C40112089C72C47C
:101163000112089C2CC50112089C43C60112089C5D
:1011730018C70112089C5FC80112089C63C90112B9
:10118300089C5CCA0112089C74CA0112089CABCA71
:101193000112089CB5CA0112089CC0CA0112089C1E
:1011A300DECA0112089C26CB0112089C84CB0112D3
:1011B300089CABCB0112089CBDCB0112089C72CCDE
:1011C3000112089CABCC0112089CCDCD0112089CE6
:1011D30020CE0112089C06CF0112089C2DCF0112CC
:1011E300089C9DCF0112089C19D00112089C75D14F
:1011F3000112089C9CD20112089C5ED30112089C28
:101203002CD40112089CEAD40112089CD2D50112F5
:10121300089C7CD60112089CE4D60112089C99D73D
:101223000112089CF5D70112089C4DD80112089CA5
:1012330013D90112089C36D90112089CF1D9011265
:10124300089C13DA0112089C74DA0112089CA4DCCE
:101253000112089C9DDD0112089C49DE0112089CC5
:101263006AE00112089CB3E00112089CFEE001123F
:10127300089C5AE10112089CB8E10112089CDCE1C8
:101283000112089C00E20112089C35E20112089C3D
:101293005DE20112089CA2E20112089CF6E201122F
:1012A300089C4FE30112089C49E40112089CE7E5FE
:1012B3000112089C2CE60112089C55E60112089CB9
:1012C300DEE60112089C51E70112089C5FE7011258
:1012D300089C83E70112089CD9E70112089CF4E7F4
:1012E3000112089CAFE80112089CDBE80112089C7C
:1012F3001EE90112089C81E90112089C8FEB01127F
:10130300089CBBEB0112089C76EC0112089C5AED79
:101313000112089CEEED0112089C04A90612089C18
:101323003CA90612089C5DA90612089C9FA90612F7
:10133300089C03AA0612089C0DAA0612089C1DAA63
:101343000612089C54AA0612089CFDAD0612089CBE
:10135300C5AF0612089CA9B10612089C4BB206122F
:10136300089CD5B20612089C50800412089CF98090
:101373000412089CD8810412089CE4820412089C7D
:1013830004830412089C26840412089CD685041244
:10139300089C43860412089C14870412089C1A882C
:1013A3000412089C92880412089CCD880412089C9D
:1013B30026890412089C61890412089CAA890412D4
:1013C300089C3E8A0412089CD48A0412089CA98BA8
:1013D3000412089C7C8C0412089C0A8D0412089C3D
:1013E300308D0412089C5D8D0412089C8E8D0412AE
:1013F300089C5B8E0412089C6B8E0412089CBE8EA4
:101403000412089CCB8E0412089CD88E0412089CEC
:10141300E18E0412089C458F0412089CA38F0412CA
:10142300089CEE8F0412089C09900412089C3090CB
:101433000412089C4D900412089C59900412089CB5
:10144300EA910412089C03920412089C7F920412EE
:10145300089C92920412089CA2920412089C469340
:101463000412089CB2940412089CC5950412089CAB
:1014730065960412089C6F960412089CEE9604125B
:10148300089CFF960412089C3E970412089C6C97D4
:101493000412089C39980412089C90980412089C22
:1014A300C9980412089C1F990412089C3D990412C0
:1014B300089C8B990412089C569A0412089CA49ABF
:1014C3000412089CF19A0412089C749B0412089C51
:1014D3009E9B0412089CD49B0412089CE39B041259
:1014E300089C429C0412089CBA9C0412089CFB9C16
:1014F3000412089C4B9D0412089C769D0412089CC0
:10150300909D0412089CAA9D0412089C7F9E0412BD
:10151300089C899E0412089CC49E0412089CD49EB5
:101523000412089C259F0412089C399F0412089CEE
:101533005BA00412089C70A00412089C03A104126F
:10154300089C77A10412089C1CA20412089C27A2E1
:101553000412089C8AA30412089CA6A30412089CE4
:10156300F2A30412089C60A40412089C92A404121F
:10157300089CACA40412089C0CA50412089CABA5FF
:101583000412089CF6A50412089C49A80412089C9E
:10159300E1A80412089C58A90412089CB5AB0412D4
:1015A300089CCDAB0412089CD0AB0412089CDCABA6
:1015B3000412089CF0AB0412089CF8AB0412089CBC
:1015C3002FAC0412089C23AD0412089CADAD041289
:1015D300089C2FAE0412089CAFAE0412089C86AF81
:1015E3000412089CA8AF0412089C41B00412089C82
:1015F3009EB00412089CA1B00412089C10B10412FE
:10160300089C5CB20412089C6FB30412089CFAB3E2
:101613000412089C0DB50412089CD4B50412089C4E
:1016230005B60412089C2BB60412089C34B60412A7
:10163300089C63B60412089C13B70412089CC3B732
:101643000412089C36B80412089CD9B80412089CEA
:101653004CB90412089C8BB90412089CD4B9041227
:10166300089CAFEE0112089C53EF0112089CA2EFF5
:101673000112089C21F00112089CD3F00112089C6E
:101683002CF40112089CE5F60112089C40FB0112A0
:10169300089C78FB0112089CA6FB0112089C38FCED
:1016A3000112089C8CFC0112089CBFFC0112089CCF
:1016B300E8FC0112089C36FD0112089CBBFD0112D7
:1016C300089C37E90512089CBFE90512089C29EA22
:1016D3000512089C9DEA0512089C6FED0512089CF3
:1016E30092ED0512089CEBED0512089CDDEE051248
:1016F300089C47EF0512089CFEF00512089C59F25E
:101703000512089CCBF20512089C44F30512089CB1
:101713001BF40512089C8CF40512089CECF40512CA
:10172300089C29F50512089CC7F50512089C96F636
:101733000512089C24F70512089C7EF70512089CE5
:10174300C8F70512089CCCF90512089CF6FA051295
:10175300089C1FFC0512089C007F0012089C117F47
:101763000012089CE57F0012089C15A60712089C2E
:10177300DFFF0612089CF39D0712089C039E0712C5
:10178300089C209E0712089CA89E0712089CB69EE0
:101793000712089CFE9E0712089CA3910712089C3F
:1017A3004B920712089C8D940712089C53A10712B1
:1017B300089C71A10712089CA5A10712089C2EA2E0
:1017C3000712089C28A40712089C35A40712089C3A
:1017D3005AA40712089C81A40712089CEC8A0712DA
:1017E300089C098B0712089C4C8B0712089C288CB9
:1017F3000712089C058E0712089C168E0712089C78
:1018030046A50712089C519E0612089CA99E061223
:10181300089CAFA10612089C84A20612089C8DA303
:101823000612089C1BA50612089C73A70612089CA7
:1018330011A80612089C61A80612089C6FA806123C
:10184300089C8CA80612089CB5A80612089CDEA862
:101853000612089CECA80612089CEAC50612089C0E
:1018630024C60612089CB7C70612089C22C8061293
:10187300089C4EC80612089C67C80612089C85C8B7
:101883000612089C7CC90612089CDCCA0612089C36
:10189300BCCB0612089CFDCC0612089C3BCD06125D
:1018A300089C66CD0612089C91CD0612089CBCCDFF
:1018B3000612089C44990712089C6D990712089C0C
:1018C30081990712089CCB990712089C169A071254
:1018D300089C619A0712089CC49A0712089CC79A2D
:1018E3000712089CD59A0712089CE69A0712089CCF
:1018F3007A870712089CB4870712089C1C88071272
:10190300089C4A880712089C97880712089CD58868
:101913000712089C10890712089C3A890712089C31
:1019230060890712089CC3890712089CF189071272
:10193300089C878A0712089C9F8A0712089CB48A0E
:101943000712089C529B0212089CB5A30712089C1D
:10195300DFA30712089CC7E10612089C70E3061276
:10196300089C7EE30612089C9EE30612089CC7E3CC
:101973000612089C24E40612089C80E40612089CC4
:1019830015E50612089C9AE50612089C2BE606123A
:10199300089C1DE70612089C31E70612089C44E7E1
:1019A3000612089C66E70612089C41A20712089CCF
:1019B300CEA20212089CA3A20712089CD0A207126F
:1019C300089C4B8E0712089C728E0712089C9D8EF2
:1019D3000712089C408F0712089CBF830712089CBC
:1019E300E2830712089CF4830712089C02840712FF
:1019F300089C2B840712089C47840712089C638465
:101A03000712089C7E840712089C3F850712089CD6
:101A1300BC850712089CF3850712089C48860712A9
:101A2300089C9D860712089CCB860712089CD986C2
:101A33000712089CF3860712089C67870712089C05
:101A43008DFF0512089C02920612089C4B92061207
:101A5300089C77920612089C90920612089CB092FA
:101A63000612089C1A930612089C54930612089CAB
:101A7300B3980612089C829A0612089CC89A06120A
:101A8300089C359B0612089CED9C0612089C1D9D24
:101A93000612089C379D0612089C4B9D0612089C53
:101AA3009F9D0612089C029E0612089C179E061212
:101AB300089CF79A0712089C0E9B0712089C379BF9
:101AC3000712089C5D9B0712089C8A9B0712089CBF
:101AD300BA9B0712089CDB9B0712089C129C0712F7
:101AE300089C3A9C0712089CAEA40712089CA1F715
:101AF3000612089CB8F70612089C2AF90612089CDD
:101B03005FF90612089C87F90612089CB4F90612BD
:101B1300089CD2F90612089C13FA0612089C91FA43
:101B23000612089CE6FA0612089C3AFB0612089C69
:101B330071FB0612089CAFFB0612089C09FC0612F7
:101B4300089C82970712089CA5970712089C29985E
:101B53000712089C27990712089C2C9F0712089CC0
:101B63002EFD0512089C3EFF0512089C00800612FC
:101B7300089C20810612089C4F810612089C9281C2
:101B83000612089CAA810612089C1A820612089C57
:101B930046820612089CB3820612089CEF84061242
:101BA300089C90860612089C97870612089C198841
:101BB3000612089C98880612089C4A890612089CFB
:101BC300DA890612089C248A0612089CC48A061223
:101BD300089CBF8B0612089C578C0612089C6A8EC1
:101BE3000612089CAF8F0612089C0A900612089CE6
:101BF3003B900612089C96900612089C00910612D0
:101C0300089C31910612089C7B910612089CD39183
:101C13000612089C28FD0212089C4BFD0212089C28
:101C230047FE0212089CF3FE0212089C2EFF0212CA
:101C3300089C00800712089C7E800712089C8E80F7
:101C43000712089CB8800712089CDDE60412089C62
:101C5300E0E60412089C66E80412089CD6E8041225
:101C6300089C53E90412089CE6E90412089C79EAEB
:101C73000412089C14EB0412089CA7EB0412089CA2
:101C830061ED0412089CF4ED0412089C87EE041223
:101C9300089C09EF0412089CE1EF0412089C3CF035
:101CA3000412089C16F20412089C39F30412089CCF
:101CB3005CF40412089C8EF50412089C8CF6041242
:101CC300089CE4F60412089C77F70412089C35F884
:101CD3000412089C67F80412089C95FB0412089CE4
:101CE30036FC0412089CA4FC0412089C12FD041286
:101CF300089C1EFE0112089C3EFE0112089C7AFFFE
:101D03000112089C7DFF0112089CFBA40712089C8A
:101D130019A50712089C38A50712089C4B740012DA
:101D2300089CA7740012089C4F750012089C7875D4
:101D33000012089C9D750012089CC1760012089C35
:101D4300CF760012089C31770012089C6F7700123F
:101D5300089C8A770012089C25780012089CCE788C
:101D63000012089C21790012089CA4790012089C97
:101D7300147A0012089C4D7A0012089CD87A00123B
:101D8300089C6A7B0012089CC17B0012089C1F7C84
:101D93000012089C317C0012089C437C0012089CB2
:101DA300697C0012089C727C0012089CC37D00129F
:101DB300089C5B7E0012089CCC7E0012089CE7CD39
:101DC3000612089C5FCF0612089C0AD00612089CD4
:101DD30032D00612089C43D00612089C46D3061242
:101DE300089C66D30612089CA8940712089CED94DD
:101DF3000712089C3A950712089C03970712089C40
:101E030074CD0512089C34CF0512089C83CF0512AC
:101E1300089CFAD10512089C5FD20512089C60D574
:101E23000512089CC6D50512089CFAD70512089C12
:101E3300E4D80512089C47D90512089CD7D9051286
:101E4300089C7DDA0512089CD6DA0512089C35DB5E
:101E53000512089C94DB0512089C60DD0512089CA2
:101E63001DDF0512089CF3E10512089C35E20512FB
:101E7300089C97E20512089CA9E20512089C1EE340
:101E83000512089CD0E30512089CF9E70512089C8B
:101E9300BEE80512089CEAA50712089C05A60712CE
:101EA300089C01A30712089C9FE70612089CBFE742
:101EB3000612089CC5E80612089C11E90612089C44
:101EC30031E90612089C84E90612089CF1E906121E
:101ED300089C37EA0612089C9BEA0612089C47ED09
:101EE3000612089C7C9C0712089C1C9D0712089CE8
:101EF300809D0712089CC39D0712089CE92E0012BF
:101F0300089CF92E0012089C8C2F0012089C9F2F0E
:101F13000012089C94300012089CEB300012089CBD
:101F2300ED310012089C00320012089CBB320012F3
:101F3300089C81330012089C16340012089C9936C1
:101F43000012089C82390012089C723B0012089C04
:101F53009D3D0012089C6B3E0012089C92450012A6
:101F6300089C14470012089C23480012089C484808
:101F73000012089C99480012089CCF480012089C44
:101F8300DF490012089C0E4A0012089C3F4A0012C7
:101F9300089CF34A0012089C2D4B0012089C764BB8
:101FA3000012089C804E0012089CA74E0012089C49
:101FB300D34E0012089C684F0012089C1050001268
:101FC300089C8B500012089C24510012089CC2519B
:101FD3000012089C37520012089CAB520012089C56
:101FE300F5520012089CC9530012089C6254001257
:101FF300089CAC540012089C6B550012089CA8570F
:102003000012089CA4590012089CF35A0012089C61
:10201300E35D0012089C305F0012089C44600012CC
:10202300089C59630012089C55650012089CB6650C
:102033000012089C31680012089CDD6B0012089C9A
:10204300306D0012089C45FF0312089C6FFF0312BA
:10205300089C93FF0312089CD1FF0312089C13D51D
:102063000612089C14D70612089C49D70612089C2E
:1020730059D70612089CF5D90612089C69DA06128C
:10208300089C96DA0612089CAFDA0612089C09DB54
:102093000612089C21DB0612089C7CDB0612089CB6
:1020A30009BA0412089CCEBA0412089C78BB041225
:1020B300089C28BD0412089CE9BD0412089C39BF82
:1020C3000412089C19C00412089CB2C20412089C92
:1020D30037C40412089C7DC40412089CCEC40412A5
:1020E300089CD7C50412089C34C60412089C6BC90B
:1020F3000412089C20CA0412089CA2CF0412089C54
:102103008BD20412089C3CD30412089CA0D3041263
:10211300089C04D40412089CA7D40412089C47D535
:102123000412089C70D50412089CC8E00412089C91
:10213300EAE30412089C6AE40412089C9EE4041275
:10214300089CE8E40412089CEEE50412089CBDE632
:102153000412089CCFE60412089C98FF0212089C04
:102163008EA50712089C17FC0612089CBCFC0612DD
:10217300089C7EFD0612089C09FF0612089C7EFF40
:102183000612089CACFF0612089CDAFF0612089C94
:10219300BDD60312089CD0D60312089C48D703125D
:1021A300089CFDD70312089CE6D90312089C2ADB7E
:1021B3000312089CF2DB0312089C0CDC0312089C3C
:1021C30078DC0312089CF6DC0312089C54DD03122E
:1021D300089C6CDD0312089CCCDD0312089C48DECE
:1021E3000312089CD6E10312089C8CE20312089C9C
:1021F300CBE20312089C31E30312089CD5E50312DA
:10220300089C30E60312089C16E70312089C56E765
:102213000312089C7BE70312089CD2E70312089C75
:1022230017E80312089CF0E80312089CDAE903128A
:10223300089CFBE90312089C5BEA0312089CBFEAB3
:102243000312089C1BEB0312089C9AEC0312089CD4
:10225300CBEF0312089C01F00312089C99F00312C0
:10226300089CD8F00312089C75F10312089C98F29D
:102273000312089CF7F20312089C7AF30312089CDA
:1022830095F40312089C98F40312089CA6F4031215
:10229300089CC5F40312089CE5F40312089C74F52A
:1022A3000312089CB5F50312089CD5F50312089C8C
:1022B3000CF60312089C3AF60312089C69F6031203
:1022C300089CB1F60312089C31F70312089C6BF7C4
:1022D3000312089CCAF70312089C0AF80312089C0D
:1022E3004BF80312089C8EF80312089CB5F80312EE
:1022F300089C17F90312089C91F90312089CCFFB61
:102303000312089C07FE0312089CC5FE0312089CD7
:10231300DFFE0312089CF9FE0312089C60A007125B
:10232300089C71A00712089CF4A00712089C84B3B0
:102333000612089CD2B30612089C88B40612089CA5
:1023430079B60612089CAABB0612089C33BC061277
:10235300089C1FBD0612089C78BD0612089CAEBEE1
:102363000612089CEFBE0612089C22C10612089CA6
:102373006BC10612089CC1C10612089C3EC206121C
:10238300089C57C30612089C9DC40612089CC2C42D
:102393000612089C27C50612089CAFC50612089CA6
:1023A30097D70212089CBAD70212089CCBD7021205
:1023B300089C17D90212089C9AD90212089C23DAA6
:1023C3000212089CB5DA0212089C69DB0212089C0F
:1023D3001DDC0212089C0CDD0212089CD3DD0212E4
:1023E300089C38DE0212089CD6E40212089CB2E76D
:1023F3000212089CFBE70212089C86E80212089C62
:1024030087EC0212089CD4ED0212089C6CEE0212B7
:10241300089C6FEE0212089C65EF0212089CE2F022
:102423000212089C04F30212089C69F60212089C2B
:10243300B8F70212089CCCF80212089C6BFA02123D
:10244300089CD0FA0212089C53FB0212089C29FC38
:102453000212089C00800512089CDB800512089C70
:1024630083810512089CDF810512089CA082051256
:10247300089C52830512089CD5850512089C458645
:102483000512089C35870512089CCC870512089C09
:1024930077880512089CA1890512089CCA8D05122C
:1024A300089C1B900512089C21910512089CBC9462
:1024B3000512089CD2950512089CBF960512089C2C
:1024C3006F970512089C17980512089CA89A051285
:1024D300089C4A9C0512089C359D0512089CBA9FCE
:1024E3000512089C42A20512089CE8A30512089C49
:1024F300AFA40512089C5CA50512089CC0A6051292
:10250300089C7BA80512089C08A90512089C7DA9B4
:102513000512089CD6A90512089C83AA0512089CDB
:1025230027AB0512089C76AB0512089C56AC051226
:10253300089CC4AC0512089C7DAD0512089C4DAEE9
:102543000512089C9CAF0512089CD6AF0512089C87
:1025530028B10512089C3DB10512089C64B105120F
:10256300089C80B20512089CADB20512089CD7B333
:102573000512089C03B40512089C1FB40512089C9D
:102583003FB40512089C65B40512089C76B4051285
:10259300089C82B50512089CE3B50512089C8FB709
:1025A3000512089CEEB70512089C0CB80512089C8E
:1025B300F4B90512089C86BA0512089CE5BA0512FF
:1025C300089C31BB0512089CBBBB0512089CCEBC02
:1025D3000512089CA6BF0512089CC2C00512089CE0
:1025E300FFC10512089C9BC30512089C5DC505121B
:1025F300089C1BC70512089C34C70512089C57C8C2
:102603000512089C36C90512089C89C90512089C45
:10261300A2C90512089C05CB0512089C5ECC0512C5
:10262300089CC9CC0512089C58ED0612089CD6EDEF
:102633000612089CC2EE0612089C96EF0612089C2E
:1026430004F00612089C9DF00612089CA0F10612E5
:10265300089C33F20612089CE8F20612089C0AF35F
:102663000612089C67F30612089C95F30612089C51
:10267300BFF30612089CE5F30612089C09F4061240
:10268300089C2FF40612089C42F50612089C8EF54E
:102693000612089CB6F60612089CC6F60612089C9B
:1026A300E3F60612089C00F70612089C13F70612BD
:1026B300089C8ADB0612089C33E10612089C41E160
:1026C3000612089C46E10612089C29FE0412089C87
:1026D30041FE0412089CF5FF0412089CBEA50712D4
:1026E300089CBB9A0212089C499A0212089C389AC9
:1026F3000212089C54990212089C70980212089CBA
:1027030086950212089C43940212089CAA91021215
:10271300089C65910212089C0B910212089C6C9014
:102723000212089C17900212089C448F0212089C04
:102733007E8E0212089C428E0212089CD58D0212D4
:10274300089CCD8D0212089C428D0212089CD28CEB
:102753000212089C238C0212089C188C0212089CFB
:10276300098C0212089CE88B0212089CB48B02129B
:10277300089CA0A10212089C888B0212089C90A1BD
:102783000212089C6EA00212089C8C9E0212089CE6
:10279300839E0212089C769E0212089C799D021267
:1027A300089C069D0212089CEA9C0212089C5A8A05
:1027B3000212089C4E880212089C1F880212089C71
:1027C30003880212089CCC9C0212089CAD8702125B
:1027D300089C74870212089CEC860212089CA0864F
:1027E3000212089CA79C0212089C59860212089C9C
:1027F30072A20712089C8C850212089C1085021293
:10280300089C68840212089CC1830212089C63839B
:102813000212089C38830212089CE9820212089C67
:10282300AB820212089C89820212089C6682021201
:10283300089C4D820212089C05820212089C4F815B
:102843000212089CC3800212089C57800212089C43
:10285300B79B0212089C00800212089C98A30700F1
:10286300000080FB8700010074193500040037194C
:10287300250002003B19260002003D192700020033
:102883003F19280001004919290001004A19840051
:1028930004004B19860001004F192A00010050194A
:1028A3002B00010051192C00010055192D000800BF
:1028B30076182E00010056192F0001005719300019
:1028C30001005819310001005919320001007E1826
:1028D300330001007F18340001005A19360001004B
:1028E3008018380001005B19390001005419830076
:1028F30002007219630001008A1864000100521972
:102903006500010053196D0001008B187100080068
:102913006E1866000100711943000100621944003A
:10292300020063194500010065194600020066199B
:102933004700080082184800010068194B00010095
:102943006919040001007519A10001007819370005
:10295300010077198800010076193C0001005C1919
:102963003D0001005D19490002006A19670001007A
:102973008C184D0002006C194E0001006E194F00B7
:1029830002006F193E0001006119510001005E1938
:10299300520001005F195300010060195400010047
:1029A300811800000000000000013636010100011B
:1029B30002010001030100010401060605020000F3
:1029C300070100340801000F090401010D0100FF94
:1029D3000E08000017020000190100FF1A01000190
:1029E3001B0100FE1C0100081D0200001F01000165
:1029F30020010001210200002301000F2402000036
:102A03002601000127010008280200FF2A01000710
:102A13002B0102402C0100002D0100012E010001B9
:102A23002F0100FF30010B1D310800003A0100089F
:102A33003B01000F3C0100013D0100FF3E0400008B
:102A430042040000460400004A0400004E04000053
:102A530052040000560400005A04000001037103ED
:102A63000103010301030103010322030203010321
:102A7300100300030003000300030003000300032B
:102A830042030003240306030003000304031203A9
:102A93002503230325032303040304030003000383
:102AA3000003440300030003230300036503210021
:102AB3003503810300030503000300030003000340
:102AC3002503230303047104020460041104700446
:102AD3000204020401040204100461040004140447
:102AE30063047304720462044304000413040604BD
:102AF300000400040404120400040004000400049D
:102B030051046400000400040004440400040004AD
:102B13000004000465040004350481046400050412
:102B230000048304000403027102300160021102F5
:102B330070020102020202028002100261023A00E4
:102B43004100630273027202620243020002130233
:102B53003800000200020402120200020002000216
:102B6300000204020402370037003C024402000260
:102B730039000002000265020002350281020002F0
:102B8300050282028302000203007100300160002B
:102B93001100700031022003500480001000610016
:102BA3000000140063007300720062004300000021
:102BB30013000600000000000400120000000000E3
:102BC3000000000004000400370037003C0244000A
:102BD30000000000000000006500000035008100D7
:102BE30000000500000083000000010171010101E4
:102BF30001011101010131010101010180011001F4
:102C030061013B001400630173017201620143011E
:102C13000001130106013D01350004011201000109
:102C230000010001000104010401330133013C01EF
:102C33004401320136000001000165010001350045
:102C430081010001050182018301000136000100B9
:102C5300060000000F00000000000000000000005C
:102C6300000003FFFF00000403FFFF0000FFFF0F4E
:102C7300F4010005C4040320000100000B00000060
:102C8300000000000003010F00000000000000002E
:102C93000000000000000000000000000000000031
:102CA30000000000000000000000F21F2E20F81FAB
:102CB3001A1FFE1F3420FE1F402004201A1FFE1F70
:102CC30034200A201A1F10201A1F16201A1F1C2036
:102CD3001A1F22201A1F28201A1F000000000000BC
:102CE30000000000000000000000000000000000E1
:102CF30000000000000000000000000000000000D1
:102D030000000000000000000300200133810000E8
:102D13000000200134810000040042015C800000B7
:102D2300050042013A800000060042014B8000008A
:102D3300070020013281000010004203E718000061
:102D430011002003CA16000012001003F818030034
:102D530000002103CB16060000001001EC16000052
:102D6300962413001E241F0024241F802A240100FC
:102D730096240200C4230300CA230400D0230500C1
:102D8300D6230600E2233100FA2333000024360061
:102D9300062411001224140018241500F423FFFF45
:102DA30000000A0000000200000004000000080008
:102DB3000000100000002000000040000000800020
:102DC30000000001000000020000000400000008F1
:102DD300000000100000002000000040000001027D
:102DE30010062C100826100B4410101A0D020810A0
:102DF300051A10070E100CEA0F0DF60F641E27FFBD
:102E0300000007ECFDFDFDECDCDCCCBCACAC9C9C19
:102E13008C7C7C6C6C5C5C5C4C4C3C3C2C2C1C1C9F
:102E230003EAF5E5D5D5C5B5A5959585857575658C
:102E330065555545453535252515150500160F00EE
:102E4300000B150B020002220F3300000E5A6967B4
:102E5300426565416C6C69616E63653039010305D8
:102E630007090B0D0F00020406080A0C0D3030177A
:102E7300181921301B1D1F30303016181920231A42
:102E83001C1E300C0E020B040B0A0708000F000374
:102E93004A49434E181A25050200393D3F373C3C49
:102EA300362C442D00011916181616182303000298
:102EB3000402010101010902E803000000BE040A43
:102EC300E80300007F0000000E000303080900016F
:102ED3000C03FF1E1E08050C0C0404001005080358
:102EE300280B00090410C082C083E99016B7F0D004
:102EF30083D08202089974F01203DD890C8A0A8B4D
:102F03000BE50A5400F8E50B5480F9E84960719029
:102F130016B7E0F9121D588A088B09AE08AF09EEFF
:102F23004F60517508018E828F83E0641A700AEE38
:102F3300FAEFFB121F56E9801DEEFAEFFB121F1486
:102F4300E9F50974FF6509600DEEFAEFFBA90912B3
:102F53001D4CE9750800E5086008EEFAEFFB121D49
:102F630046E99016B7E0F9121D588A0E8B0FAE0E84
:102F7300AF0F80ABE50A6400FAE50B6480FB8004C5
:102F83007A007B007F0802063B74F71203DDE9FE3B
:102F93007AFFEEF9121F0E7F0102063B74F0120353
:102FA300DD890C8A0D7A047B00121DF48A0E8B0FC7
:102FB300850E0A850F0BE50A450B70057900023073
:102FC3008FE50DC0E0850A82850B83A3A3A3D0E020
:102FD300F0E50CC0E0850A82850B83A3A3D0E0F063
:102FE300850A82850B837400F0A37400F09016C4E5
:102FF300E0F8A3E0F9E849700D9016C4E50AF0A3E0
:10300300E50BF002308D9016C4E0F8A3E0F9E8FE7A
:10301300E9FF9016C4E0F8A3E0F988088909EE4FA8
:1030230060238E828F83A3A3A3E0650D70047900D0
:10303300805AEEF8EFF9880889098E828F83E0FEC3
:10304300A3E0FF80D974FF650D701C850882850994
:1030530083E50AF0A3E50BF0850A82850B837400F0
:10306300F0A37400F080239016C4E0FAA3E0FBA859
:103073000AA90B9016C4E8F0A3E9F0EAF8EBF98586
:103083000A82850B83E8F0A3E9F079017F08020641
:103093003B74F71203DDEA2414F582E43BF583E085
:1030A300FE9016C4E0F8A3E0F9E8FCE9FDEC4D60FE
:1030B300308C828D83A3A3A3E06E600C8C828D83FE
:1030C300A3A3A3E064FF700A8C828D83A3A3E0F91A
:1030D30080118C828D83E0F8A3E0F9E8FCE9FD80A0
:1030E300CC79FF7F0102063B74F21203DD8A088B61
:1030F30009850882850983E0FAA3E0FB121F14E91E
:10310300F50A74FF650A700579010231E87A197BC3
:1031130000121D408A0C8B0DAE0CAF0DEE4F7003E9
:103123000231E68E828F837434F0850882850983A9
:10313300A3A3EE2402FCE43FFD74061208158508E0
:1031430082850983E0F8A3E0F5838882A3A3A3A380
:10315300E0F8A3E0F98E828F83A3A3A3A3A3A3A381
:10316300A3E8F0A3E9F0850882850983E0F8A3E0EA
:10317300C82406F582C83400F583EE240AFCE43F34
:10318300FD740C120815850882850983E0F8A3E015
:10319300C82414F582C83400F583E0C0E0EE241699
:1031A300F582E43FF583D0E0F0E508240CF582E4F2
:1031B3003509F583E0F8A3E0F9EE2417F582E43F3F
:1031C300F583E8F0A3E9F0E508240CF582E435097A
:1031D300F5837400F0A37400F0EEFAEFFBA90A1272
:1031E3001D4CE979017F0602063BC082C08390161D
:1031F300C2E0FAA3E0FBD083D08202089974EE12F6
:1032030003DD8A088B098C0E8D0F7412120BA5E057
:10321300F50AA3E0F50B7A087B00121DF48A108BE4
:1032230011AE10AF11EE4F700579100232B68E82D7
:103233008F837400F0A37400F08E828F83A3A3E5C1
:1032430008F0A3E509F08E828F83A3A3A3A3E50E61
:10325300F0A3E50FF08E828F83A3A3A3A3A3A3E51B
:103263000AF0A3E50BF09016BCE0F8A3E0F9E849F7
:10327300700A9016BCEEF0A3EFF080359016BCE018
:10328300F8A3E0F9880C890D850C82850D83E0F89D
:10329300A3E0F9E849600F850C82850D83E0F50C06
:1032A300A3E0F50D80E2850C82850D83EEF0A3EF9C
:1032B300F079007F0A02063B74F01203DD890C8A61
:1032C3000D8C088D097A0A7B00121DF48A0E8B0F70
:1032D300AE0EAF0FEE4F7005791002337C8E828FE6
:1032E300837400F0A37400F0E50CC0E08E828F833A
:1032F300A3A3D0E0F08E828F83A3A3A37400F0A3D3
:103303007400F0E50DC0E08E828F83A3A3A3A3A373
:10331300A3A3D0E0F08E828F83A3A3A3A3A3A3A32D
:10332300A3E508F0A3E509F09016BEE0F8A3E0F9E1
:10333300E849700A9016BEEEF0A3EFF080399016BC
:10334300BEE0F8A3E0F9880A890B850A82850B831E
:10335300E0F8A3E0F9E849600F850A82850B83E072
:10336300F50AA3E0F50B80E2EEF8EFF9850A828512
:103373000B83E8F0A3E9F079007F0802063B74F2BF
:103383001203DD74F712097B890AEAFEEBFF8C084E
:103393008D098518828519837401F0E508700BE5A2
:1033A30009C3940650047901805F74036E7003743B
:1033B300006F700479018051740112094D880C89E2
:1033C3000D780C1208B97C127D007A007B00A90AE3
:1033D300121F7A74021208CCE9601DE4F50CF50D96
:1033E300780C1208B9740312095D7402120955129C
:1033F3001FC274021208CCE9851882851983E06420
:1034030001700479018002790074091208CC7F06E7
:1034130002063B74E81203DD74F612097B7408128A
:103423000BA5EAF0A3EBF0890FECFEEDFF7422127B
:103433000BA5E0F5107424120BA5E0F51774251203
:103443000BA5E0F5167428120BA5E0F511A90F12D0
:1034530016928A0C8B0D850C12850D13E5124513FC
:103463007005790202368FEEFAEFFBA90F121F9255
:10347300E9F50BE50BA2E64024121F208A0C8B0D05
:10348300A80CA90DE8496015E82419F582E439F57B
:1034930083E064017007D3E50B92E6F50B7C067DB0
:1034A300007900AA18AB19121D287423120BA5E08A
:1034B3006020851882851983E054FCF0A3E054FF53
:1034C300F0851882851983E04401F0A3E04400F0FD
:1034D300800F851882851983E054FCF0A3E054FF24
:1034E300F0851282851383A3A3A3E0F8A3E0F9E890
:1034F300496036851282851383A3A3A3E0F8A3E072
:10350300F5838882A31206FAAD107402120BA5E0AC
:10351300F8A3E0F9E85403FCEEFAEFFBA90F121F3E
:103523003274021208CCE97005790102368F7426D1
:10353300120BA5E0F8A3E0F9E8496023851882851A
:103543001983E04404F0A3E04400F07426120BA5B1
:10355300E0F8A3E0F97402120BA5E8F0A3E9F0E5A3
:10356300176011851882851983E04408F0A3E044AD
:1035730000F0800F851882851983E054F7F0A3E0EB
:1035830054FFF0E5166011851882851983E0441015
:10359300F0A3E04400F0800F851882851983E0547E
:1035A300EFF0A3E054FFF0E511C0E07404120BA5A3
:1035B300D0E0F0E510C0E07405120BA5D0E0F0AA4E
:1035C30018AB19121F68E9F879008808890974296A
:1035D300120BA5E02508F508A3E03509F509AA08AB
:1035E300AB09121DF48A0C8B0D850C14850D15E5A2
:1035F300144515700302368AAC14AD15AA18AB191D
:10360300121F627406120BA5EAF0A3EBF0742B12DF
:103613000BA5E0F50CA3E0F50D750E00780C120870
:10362300B5742C120BA5E0FCA3E0FD7409120BA5E5
:10363300E0FAA3E0FB121D1C74031208CC750C1EE8
:10364300780C1208BD750CBA750D16780C1208B9F2
:1036530078141208B978081208B98E0C8F0D780CFB
:103663001208B9A90BAC12AD137411120BA5E0FA31
:10367300A3E0FB12168674091208CCE9F50AAA1412
:10368300AB15121DFA8003750A10A90A740A1208F1
:10369300CC7F1002063B74E81203DD74FC12097B35
:1036A3007402120BA5EAF0A3EBF0890E8C168D17AA
:1036B300741C120BA5E0F514A3E0F5157420120B8E
:1036C300A5E0F50F7E007F00750C0085148285153B
:1036D30083E0F8E50CC3984003023784A80C790013
:1036E300E875F006A4C8AAF075F000A42AFA75F0EC
:1036F30006E9A42AF9E51428F582E51539F583A32B
:10370300858208858309EE2403FEEF3400FF8508D4
:1037130082850983A3A3E070630EEE70010F850811
:1037230082850983A3A3A3A3E0F8A3E0F9E8496092
:103733002B850882850983A3A3A3A3E0FAA3E0FB57
:10374300850882850983A3A3A3E0F9121FBC8A0A13
:103753008B0BEE250AFEEF350BFF80208508828553
:103763000983E0FCA3E0FDAA16AB17A90E121FCE36
:103773008A0A8B0BEE250AFEEF350BFF050C02368A
:10378300CEEEFAEFFB121DF48A088B09850810852B
:103793000911E5104511700302397385100885116D
:1037A30009750C00851482851583E0F8E50CC39830
:1037B3004003023904A80C7900E875F006A4C8AAEE
:1037C300F075F000A42AFA75F006E9A42AF9E514C5
:1037D30028F582E51539F583A385820A85830B8550
:1037E3000A82850B83E0F8A3E0F9E8C0E08508824C
:1037F300850983D0E0F0850882850983A385820843
:10380300858309850A82850B83E0F8A3E0F9E4C97F
:10381300F8E8C0E0850882850983D0E0F085088256
:10382300850983A3858208858309850A82850B839D
:10383300A3A3E0C0E0850882850983D0E0F0850872
:1038430082850983A3858208858309850A82850B7E
:1038530083A3A3E060030238FF850A82850B83A359
:10386300A3A3E0C0E0850882850983D0E0F0850842
:1038730082850983A3858208858309850A82850B4E
:1038830083A3A3A3A3E0F8A3E0F9E849602DAC0860
:10389300AD09850A82850B83A3A3A3A3E0FAA3E062
:1038A300FB850A82850B83A3A3A3E0F9121F9E8ADB
:1038B300128B138512088513098041A818A919884A
:1038C30012891378121208B978081208B9850A8286
:1038D300850B83E0FCA3E0FDAA16AB17A90E121F0C
:1038E300D474041208CCE9851882851983E0F8A3FF
:1038F300E0F9E50828F508E50939F509050C02376B
:10390300A778101208B98E0A8F0B780A1208B9E546
:103913000FF50A780A1208BDE4F50AF50B780A12C6
:1039230008B97426120BA5E0F50A780A1208BD74CB
:1039330026120BA5E0F50A780A1208BD750A00786D
:103943000A1208BD750A01780A1208BDAC16AD1734
:10395300740D120BA5E0FAA3E0FBA90E121F387435
:103963000B1208CCE9F50DAA10AB11121DFA800356
:10397300750D10A90D74041208CC7F1002063B7458
:10398300E81203DD74FE12097B851882851983EA28
:10399300F0A3EBF089108C168D17741A120BA5E0A7
:1039A300F50AA3E0F50B741C120BA5E0F515741DC5
:1039B300120BA5E0F514741E120BA5E0F511850A90
:1039C30082850B83E0F87900E875F003A4C8AAF0B8
:1039D30075F000A42AFA75F003E9A42AF9E8FEE9D0
:1039E300FFEEFAEFFB121DF48A088B0985080E859A
:1039F300090FE50E450F7003023B63850E08850F23
:103A030009750C00850A82850B83E0F8E50CC398E1
:103A13004003023AE3A80C7900E875F003A4C8AAAE
:103A2300F075F000A42AFA75F003E9A42AF9E50A6F
:103A330028F582E50B39F583A3E0C0E0850882858C
:103A43000983D0E0F0850882850983A385820885F0
:103A53008309A80C7900E875F003A4C8AAF075F0EF
:103A630000A42AFA75F003E9A42AF9E50A28F582E5
:103A7300E50B39F583A3A3E0F8A3E0F9E8C0E085FB
:103A83000882850983D0E0F0850882850983A385B0
:103A93008208858309A80C7900E875F003A4C8AAF5
:103AA300F075F000A42AFA75F003E9A42AF9E50AEF
:103AB30028F582E50B39F583A3A3E0F8A3E0F9E445
:103AC300C9F8E8C0E0850882850983D0E0F085085D
:103AD30082850983A3858208858309050C023A0739
:103AE300850A82850B83E06401700E850A82850B4B
:103AF30083A3E070047E017F00780E1208B98E1252
:103B03008F1378121208B9E511F51278121208BD55
:103B1300E4F512F51378121208B9E514F5127812C8
:103B23001208BDE515F51278121208BD751200785A
:103B3300121208BD75120478121208BDAC16AD1727
:103B4300740B120BA5E0FAA3E0FBA910121F387443
:103B53000B1208CCE9F50DAA0EAB0F121DFA800368
:103B6300750D10A90D74021208CC7F1002063B7468
:103B7300E81203DD74FC12097B7402120BA5EAF050
:103B8300A3EBF0851882851983ECF0A3EDF089147B
:103B9300741C120BA5E0F510A3E0F511741E120BB3
:103BA300A5E0F517741F120BA5E0F5167420120B90
:103BB300A5E0F5157E007F00750A0085108285114A
:103BC30083E0F8E50AC398505DA80A7900E875F028
:103BD30005A4C8AAF075F000A42AFA75F005E9A4B3
:103BE3002AF9E51028F582E51139F583A3858208C2
:103BF300858309EE2403FEEF3400FF8508828509DF
:103C030083A3A3A3E0FAA3E0FB850882850983A32A
:103C1300A3E0F9121FBC8A0C8B0DEE250CFEEF35C9
:103C23000DFF050A8095EEFAEFFB121DF48A088B4F
:103C33000985080E85090FE50E450F7003023D8EB9
:103C4300850E08850F09750A00851082851183E0AA
:103C5300F8E50AC3984003023D21A80A7900E875F4
:103C6300F005A4C8AAF075F000A42AFA75F005E9D6
:103C7300A42AF9E51028F582E51139F583A3858295
:103C83000C85830D850C82850D83E0F8A3E0F9E8AC
:103C9300C0E0850882850983D0E0F0850882850924
:103CA30083A3858208858309850C82850D83E0F8CB
:103CB300A3E0F9E4C9F8E8C0E0850882850983D068
:103CC300E0F0850882850983A385820885830985B9
:103CD3000C82850D83A3A3E0C0E085088285098358
:103CE300D0E0F0850882850983A38582088583094E
:103CF300AC08AD09850C82850D83A3A3A3E0FAA3C9
:103D0300E0FB850C82850D83A3A3E0F9121F9E8A35
:103D1300128B13851208851309050A023C4C780E91
:103D23001208B98E0C8F0D780C1208B9E515F50C35
:103D3300780C1208BDE4F50CF50D780C1208B9E502
:103D430016F50C780C1208BDE517F50C780C120863
:103D5300BD750C00780C1208BD750C0A780C12089E
:103D6300BD740B120BA5E0FCA3E0FD740D120BA5B3
:103D7300E0FAA3E0FBA914121F38740B1208CCE974
:103D8300F50BAA0EAB0F121DFA8003750B10A90BCE
:103D930074041208CC7F1002063B74EC1203DD742A
:103DA300FE12097B890B8A128B138C0E8D0F7416EE
:103DB300120BA5E0F50CA3E0F50D7418120BA5E0AA
:103DC300F5087419120BA5E0F509741A120BA5E096
:103DD300FEA3E0FF741C120BA5E0F50A850C828597
:103DE3000D83E0C0E0851882851983D0E0F0850C4F
:103DF30082850D83A3E0C0E07401120BA5D0E0F02F
:103E0300A818A9198810891178101208B975100219
:103E130075110078101208B9E50AF5107810120828
:103E2300BD8E108F1178101208B9E509F5107810BE
:103E33001208BDE508F51078101208BD751000785A
:103E4300101208BD75100B78101208BDAC0EAD0F23
:103E5300AA12AB13A90B121F38740B1208CC7402ED
:103E63001208CC7F0C02063B74ED1203DD74EB12D7
:103E7300097B8A088B097E017F00E5082420F582EF
:103E8300E43509F583C3E09403A3E0940050057976
:103E9300010245889016C2E508F0A3E509F08518EC
:103EA30082851983E508F0A3E509F0740C120BA5CC
:103EB3007400F0A37400F07408120BA57400F0A34F
:103EC3007400F0740A120BA57400F0A37400F0E5FB
:103ED300082422F582E43509F583E0FCA3E0FD74B0
:103EE30002120BA5AA82AB83121F5C7408120BA5E6
:103EF300EAF0A3EBF0E5082420F582E43509F58325
:103F0300E0F8A3E0F9740A120BA5E8F0A3E9F07452
:103F13000A120BA5C082C0837408120BA5E0F8A394
:103F2300E0F9D083D082E0C398F8A3E099F9E508DB
:103F33002422F582E43509F583E028F8A3E039F972
:103F4300740A120BA5E8F0A3E9F07406120BA5E0BE
:103F53009016BBF0E5082414F582E43509F583E0F7
:103F6300F91216928A108B1185100E85110FE50E2A
:103F7300450F700F9016C27400F0A37400F079021D
:103F8300024588850E82850F83A3A3A3E0F8A3E0EF
:103F9300F9E8496051850E82850F83A3A3A3E0F856
:103FA300A3E0F5838882A31206FA7409120BA5E035
:103FB300FD7404120BA5E0F8A3E0F9E85403FC85B3
:103FC3000882850983A3A3A3A3E0FAA3E0FBE50882
:103FD3002414F582E43509F583E0F9121F327402E3
:103FE3001208CCE9700F9016C27400F0A37400F0AD
:103FF3007903024588750A00850882850983A3A38E
:10400300A3A3E0FAA3E0FBE5082414F582E4350951
:10401300F583E0F9121F92E9F5129016C6E0F8A3B2
:10402300E0F9E8496013AA18AB199016C6E0F8A3A3
:10403300E0F5838882120555E9850E82850F83A3F7
:10404300A3A3E0F8A3E0F5838882A3E0FCA3E0FD4B
:10405300850882850983A3A3A3A3E0FAA3E0FB1247
:104063001F6E8A108B1185100C85110DE50C450D03
:1040730070030241ED7402120BA5E05407F8A3E0AC
:104083005400F9E849700D7407120BA5E0640B7036
:10409300030241EDE512A2E65004D2F08002C2F021
:1040A300A2F0E433F50B7401650B60030241EDE507
:1040B300082419F582E43509F583E060030241ED34
:1040C300851882851983E0F8A3E0C82415F582C812
:1040D3003400F583E060030241DE8518828519838D
:1040E300E0F8A3E0F5838882A3A3E0F8A3E0F9E86E
:1040F3004960030241DE7C00850882850983A3A30E
:10410300A3A3E0FAA3E0FBE5082414F582E4350950
:10411300F583E0F9121F98EEC0E0740F120BA5D0DF
:10412300E0F07407120BA5E0C0E0740E120BA5D0EB
:10413300E0F07406120BA5E0F51078101208BD74B8
:1041430005120BA51206FA75100178101208BD743A
:1041530006120BA5E0F8A3E0F9E8131313541F6448
:10416300015401F51078101208BD741312094D881B
:1041730010891178101208B97407120BA5E0F8A37F
:10418300E0F5838882A3A3A3A3E0FCA3E0FD740767
:10419300120BA5E02406FAA3E03400FB7407120B0C
:1041A300A5E0F8A3E0C82414F582C83400F583E041
:1041B300F9121F5074071208CCE97C018508828527
:1041C3000983A3A3A3A3E0FAA3E0FBE5082414F562
:1041D30082E43509F583E0F9121F989016C2740042
:1041E300F0A37400F07905024588E50A60030243F1
:1041F300F97402120BA5E05403F8A3E05400F9E8A4
:1042030060030243F97402120BA5E0F8A3E0F9E896
:104213001313543F5401A2E050057E8402446C748E
:1042230007120BA5E0C3941740030243F57407126A
:104233000BA5E0F87900E875F004A4C8AAF075F0BE
:1042430000A42AFA75F004E9A42AF974AD28F582CA
:10425300742C39F583E493F8740193F9E8497003F6
:104263000243F5E5082414F582E43509F583E0C03B
:10427300E07410120BA5D0E0F0740A120BA5E0F85D
:10428300A3E0F97411120BA5E8F0A3E9F074081286
:104293000BA5E0F8A3E0F97413120BA5E8F0A3E96A
:1042A300F074101209557407120BA5E0F87900E8B1
:1042B30075F004A4C8ACF075F000A42CFC75F004F0
:1042C300E9A42CF974AD28F582742C39F583E493B1
:1042D300C0E0740193F583D082120555740C120B60
:1042E300A5EAF0A3EBF0740C120BA5E0F8A3E0F938
:1042F300E849606E7407120BA5E0F87900E875F0E1
:1043030004A4C8AAF075F000A42AFA75F004E9A47D
:104313002AF974AF28F582742C39F583E493F87481
:104323000193F9E849603BAA18AB197407120BA56E
:10433300E0F87900E875F004A4C8ACF075F000A4C7
:104343002CFC75F004E9A42CF974AF28F582742CC5
:1043530039F583E493C0E0740193F583D0821205A9
:1043630055E9740C120BA5E0F8A3E0F9E849600DD8
:10437300740C120BA5E0FAA3E0FB121DFA740712EA
:104383000BA5E0605A7407120BA5E0640260507439
:1043930007120BA5E0640360467407120BA5E064E3
:1043A30006603C7407120BA5E064086032740712C0
:1043B3000BA5E0640C60287407120BA5E064116080
:1043C3001E7407120BA5E0641360147407120BA587
:1043D300E06415600A7407120BA5E0640B700F907C
:1043E30016C27400F0A37400F079000245887E00C1
:1043F30080777E828073E50C450D604D850C828548
:104403000D83A3A3A3A3A3A3E0F8A3E0F9E8496062
:1044130038AA18AB19850C82850D83A3A3A3A3A384
:10442300A3E0F8A3E0F5838882120555E9FE74FF43
:104433006E6007E50A6012EE700F9016C27400F00A
:10444300A37400F0790002458874016E701B740236
:10445300120BA5E0F8A3E0F9E81313543F5401A2AB
:10446300E050047E8380027E81851882851983E073
:10447300F8A3E0C82415F582C83400F583E060038F
:1044830002455E851882851983E0F8A3E0F58388E9
:1044930082A3A3E0F8A3E0F9E849600302455E7450
:1044A30002120BA5E0F8A3E0F9E8C4540F5401A2EB
:1044B300E0500302455EEEC0E0740F120BA5D0E09E
:1044C300F07407120BA5E0C0E0740E120BA5D0E048
:1044D300F07406120BA5E0F51078101208BD7405F0
:1044E300120BA51206FA75100178101208BD740696
:1044F300120BA5E0F8A3E0F9E8131313541F6401AA
:104503005401F51078101208BD741312094D881068
:10451300891178101208B97407120BA5E0F8A3E00B
:10452300F5838882A3A3A3A3E0FCA3E0FD74071291
:104533000BA5E02406FAA3E03400FB7407120BA5D5
:10454300E0F8A3E0C82414F582C83400F583E0F949
:10455300121F5074071208CCE97F019016C2740031
:10456300F0A37400F0EE70047900801974846E7007
:104573000BEF60047907800D79068009EF600479F9
:10458300098002790874151208CC7F0B02063B746C
:10459300F41203DD8A088B09ECFEEDFF7C067D0037
:1045A3007900AA08AB09121D288E828F83E0F8795F
:1045B30000E85403F8E95400F9850882850983E08B
:1045C30054FCF0A3E054FFF0E85403F8E95400F975
:1045D300850882850983E048F0A3E049F08E828F45
:1045E30083E0A2E25004D2F08002C2F08508828503
:1045F3000983E054FBF0A3E054FFF0A2F0E433F5A9
:104603000A750B007402780A120A3285088285093A
:1046130083E0450AF0A3E0450BF08E828F83E0A28E
:10462300E35011850882850983E04408F0A3E04440
:1046330000F0800F850882850983E054F7F0A3E03A
:1046430054FFF08E828F83E0A2E45004D2F0800204
:10465300C2F0850882850983E054EFF0A3E054FF9C
:10466300F0A2F0E433F50A750B007404780A120A19
:1046730032850882850983E0450AF0A3E0450BF003
:104683008E828F83A3AE82AF83850882850983E000
:10469300F8A3E0F9E81313543F5401A2E0502E8E1F
:1046A300828F83E0FA7B008E828F83A3E0F8790008
:1046B300E4C8F9EA28F8EB39F9850882850983A368
:1046C300A3E8F0A3E9F0EE2402FE50010F8E828FDF
:1046D30083E0C0E0850882850983A3A3A3A3D0E078
:1046E300F08E828F83A3AE82AF838E828F83E0C0EE
:1046F300E0850882850983A3A3A3A3A3D0E0F08E5A
:10470300828F83A3AE82AF83EEFAEFFB7F040206B0
:104713003BC082C083EAF8EBF9ECFAEDFB888289AF
:1047230083E0FCA3E0FDEC5403C0E08A828B83D0DA
:10473300E0F088828983E0FCA3E0FDEC1313543F8F
:104743005401333354FCFC8A828B83E04CF088821F
:104753008983E0FCA3E0FDEC131313541F540133CE
:10476300333354F8FC8A828B83E04CF0888289834C
:10477300E0FCA3E0FDECC4540F5401C454F0FC8AE4
:10478300828B83E04CF08A828B83A3AA82AB8388DB
:10479300828983E0FCA3E0FDEC1313543F5401A290
:1047A300E0503F88828983A3A3E0FCA3E0FDECC033
:1047B300E08A828B83D0E0F08A828B83A3AA82ABC8
:1047C3008388828983A3A3E0FCA3E0FDE4CDFCEC12
:1047D300C0E08A828B83D0E0F08A828B83A3AA8293
:1047E300AB8388828983A3A3A3A3E0C0E08A828BDF
:1047F30083D0E0F08A828B83A3AA82AB83888289E9
:1048030083A3A3A3A3A3E0C0E08A828B83D0E0F0B9
:104813008A828B83A3AA82AB83D083D08202089936
:10482300C082C08379038A828B83E0FCA3E0FDEC22
:104833001313543F5401A2E05004740229F9D083A6
:10484300D08202089974F71203DDEAFEEBFF90169B
:10485300BCE0F8A3E0F9E849603388828983A3A325
:10486300E0FAA3E0FBC3EE9AEF9B401688828983AC
:10487300A3A3A3A3C3E09EA3E09F4006E8FAE9FB3A
:10488300800F88828983E0F8A3E0F980C97A007BEE
:10489300007F0102063BC082C0839016BEE0FCA3EA
:1048A300E0FDEC4D601B8C828D83A3A3E069700651
:1048B300ECFAEDFB800F8C828D83E0FCA3E0FD809E
:1048C300E17A007B00D083D08202089974F012034E
:1048D300DD890C8A088B098C0A8D0B7410120BA5C9
:1048E300E0FEA3E0FFA90C121F748A0E8B0FAA0E21
:1048F300AB0FEA4B70030249D8750D008A828B8394
:10490300A3A3A3A3A3A3A3E0F8E50DC398400302C5
:1049130049D8A80D7900E875F008A4C8ACF075F083
:1049230000A42CFC75F008E9A42CF98A828B83A3DC
:10493300A3A3A3A3A3A3A3E028FCA3E0398C82F53C
:1049430083E493F8740193F9E508687003E5096952
:10495300707EA80D7900E875F008A4C8ACF075F076
:1049630000A42CFC75F008E9A42CF98A828B83A39C
:10497300A3A3A3A3A3A3A3E028FCA3E0398C82F5FC
:1049830083A3A3E493F8740193F9E50A687003E53C
:104993000B69703CA80D7900E875F008A4C8ACF069
:1049A30075F000A42CFC75F008E9A42CF98A828B1D
:1049B30083A3A3A3A3A3A3A3A3E028FCA3E0398C0D
:1049C30082F583EEFCEFFD74081207F3790180078B
:1049D300050D0248FF79007F0802063B74F61203B7
:1049E300DDE9FEEEF9121F748A088B0985088285BA
:1049F3000983E5824583600AA3A3A3E0FAA3E0FB4E
:104A030080047A007B007F0202063B74F61203DD0A
:104A1300E9FEEEF9121F748A088B0985088285095D
:104A230083E5824583600CA3A3A3A3A3E0FAA3E0D9
:104A3300FB80047A007B007F0202063B74F61203BC
:104A4300DDE9FE8A088B099016C0E0F8A3E0F9E8D7
:104A5300FCE9FDEC4D7003024AEA8C828D83A3A32B
:104A6300E06E70737A008C828D83A3A3A3E0F8EACF
:104A7300C3985063EAF87900E875F003A4C8ABF073
:104A830075F000A42BFB75F003E9A42BF98C828D40
:104A930083A3A3A3A3E028FBA3E0398B82F583E0E0
:104AA30065087004A3E06509702AEAF87900E875DF
:104AB300F003A4C8AAF075F000A42AFA75F003E97C
:104AC300A42AF98C828D83A3A3A3A3E028FAA3E0ED
:104AD30039FB80170A808F8C828D83E0F8A3E0F97D
:104AE300E8FCE9FD024A567A007B007F0202063B9E
:104AF30074F21203DD8909EAFEEBFFEEFAEFFBA97C
:104B030009121F8C8A0C8B0D850C0A850D0BE50A87
:104B1300450B600F850A82850B83A3A3E0F508A9E3
:104B230008800279007F0602063B74F21203DD89D6
:104B33000AEAFEEBFF8C0BEEFAEFFBA90A121F8CBD
:104B43008A0C8B0D850C08850D09E5084509601E47
:104B5300E50B600E850882850983A3A3E0D2E6F006
:104B6300800C850882850983A3A3E0C2E6F07F0653
:104B730002063B74ED1203DD89128A088B09ECFEF1
:104B8300EDFFE50845097007EEFAEFFB024E7BE502
:104B93001212077F044142B44D4344F64DE0E2D87C
:104BA3004CE8E92A4C21080E4C092A4C0A6C4C0BA0
:104BB300D84C100E4C180E4C192A4C1A6C4C1BD89E
:104BC3004C200E4C212A4C226C4C23D84C24F84CFC
:104BD30025274D26564D27854D280E4C292A4C2A2C
:104BE3006C4C2BD84C2CF84C2D274D2E564D2F8525
:104BF3004D300E4C312A4C382A4C39D84C3A854D1D
:104C0300EAD84CF0854DF14B4E774E8508828509E5
:104C130083E0C0E08E828F83D0E0F08E828F83A307
:104C2300AE82AF83024E77850882850983E0F8A3BD
:104C3300E0F9E8C0E08E828F83D0E0F08E828F832C
:104C4300A3AE82AF83850882850983E0F8A3E0F9E8
:104C5300E4C9F8E8C0E08E828F83D0E0F08E828FC3
:104C630083A3AE82AF83024E77850882850983785A
:104C73000C120B36E50CC0E08E828F83D0E0F08EF1
:104C8300828F83A3AE82AF83850882850983780CE4
:104C9300120B36E4C50DF50CE50CC0E08E828F8354
:104CA300D0E0F08E828F83A3AE82AF8385088285A6
:104CB3000983780C120B367410780C12091CE50C5E
:104CC300C0E08E828F83D0E0F08E828F83A3AE828A
:104CD300AF83024E778508828509831206F6EEFAC2
:104CE300EFFB121DAC74041208CC8A0C8B0DAE0CB6
:104CF300AF0D024E7785080A85090B850A0C850BD3
:104D03000D750E00780C1208B57C057D00EEFAEFE8
:104D1300FB121D1C74031208CC8A0C8B0DAE0CAF56
:104D23000D024E7785080A85090B850A0C850B0D44
:104D3300750E00780C1208B57C067D00EEFAEFFBC9
:104D4300121D1C74031208CC8A0C8B0DAE0CAF0D14
:104D5300024E7785080A85090B850A0C850B0D75AC
:104D63000E00780C1208B57C077D00EEFAEFFB12FB
:104D73001D1C74031208CC8A0C8B0DAE0CAF0D02F4
:104D83004E7785080A85090B850A0C850B0D750E70
:104D930000780C1208B57C087D00EEFAEFFB121DBB
:104DA3001C74031208CC8A0C8B0DAE0CAF0D024E93
:104DB3007785080A85090B850A82850B83E0F879D4
:104DC3000088108911850A0C850B0D750E00780C6F
:104DD3001208B5E5102401FCE43511FDEEFAEFFBF2
:104DE300121D1C74031208CC8A0C8B0DAE0CAF0D74
:104DF300024E7785080A85090B850A82850B83E0B5
:104E0300FA7B00850A82850B83A3E0F87900E4C866
:104E1300F9EA28F8EB39F988108911850A0C850B12
:104E23000D750E00780C1208B5E5102402FCE4356C
:104E330011FDEEFAEFFB121D1C74031208CC8A0C51
:104E43008B0DAE0CAF0D802C85080A85090B850AE6
:104E53000C850B0D750E00780C1208B57C107D00C7
:104E6300EEFAEFFB121D1C74031208CC8A0C8B0D97
:104E7300AE0CAF0DEEFAEFFB7F0B02063BC082C018
:104E830083E9F8E812077F03202F9A4E383A9A4EA7
:104E9300E0E29A4E009E4E790180027900D083D0E1
:104EA30082020899C082C08374FE12097B8518822E
:104EB3008519837401F0A37400F085188285198322
:104EC300E0FA7B0074021208CCD083D082020899E6
:104ED30074EC1203DD89108A0E8B0FECFEEDFFAA32
:104EE3000EAB0FA910121FBC8A128B1385120885F3
:104EF3001309121FAA8A128B13E5124513600E754C
:104F03000C01750D00750A00750B008014750CFFFC
:104F1300750DFFE50824FFF8E50934FFF9880A89D0
:104F23000BA808A909E824FFF508E934FFF509E807
:104F330049602D8E828F83E0C0E0E50E250AF5825D
:104F4300E50F350BF583D0E0F08E828F83A3AE821D
:104F5300AF83E50A250CF50AE50B350DF50B80C18A
:104F63007F0C02063BE9F8E824F8607814607914B2
:104F7300607A14607B24FB606B24F86067146068BC
:104F830014606914606A24FB605A14605B14605CEB
:104F930014605D14605E14605F14606014606114DB
:104FA3006042146043146044146045146046146006
:104FB3004714604814604914602A14602B24F96074
:104FC3002714602C146039245A602514602214605D
:104FD3001F24FA601314601014601524FA6021145E
:104FE30060228024790180227902801E7903801A4D
:104FF30079048016790580127906800E7907800A74
:105003007908800679108002790002089974F512F4
:1050130003DD890AEAFEEBFF750800750900744495
:10502300650A60067443650A70278E828F83E0FAEF
:105033007B008E828F83A3E0F87900E4C8F9EA2825
:10504300F8EB39F9E82402F8500109880889098046
:105053002E7442650A60067441650A70158E828F4C
:1050630083E0F87900E82401F850010988088909E8
:10507300800DA90A121FB6E9F8790088088909AAE0
:1050830008AB097F0302063B74EE1203DD8A108B23
:1050930011ECFEEDFF7412120BA5E0F508A3E0F589
:1050A300098E828F83A3A3A3A3A3A3E0F8A3E0F9AC
:1050B300E8497004790180648E828F83A3A3A3A33C
:1050C300A3A3E0FAA3E0FB8E828F83A3A3A3A3E0B1
:1050D300F9121FBC8A0C8B0D850C0A850D0B8E8271
:1050E3008F83A3A3A3A3A3A3E0F50CA3E0F50D75FE
:1050F3000E00780C1208B5AC0AAD0BAA10AB111256
:105103001D1C74031208CCE5084509600D8508824F
:10511300850983E50AF0A3E50BF079007F0A02060F
:105123003B74EE1203DD74F812097B8908EAFEEB87
:10513300FF8C0A8D0B741A120BA5E0F50EA3E0F594
:105143000F741C120BA5E0F50CA3E0F50DA818A92C
:10515300198810891178101208B9AC0AAD0BEEFA50
:10516300EFFBA908121F7A74021208CCE9700479C4
:105173000180427406120BA5E0F8A3E0F9E8496048
:1051830018780C1208B9740212095DAA0EAB0F123B
:105193001FC274021208CC801C780C1208B9780E56
:1051A3001208B9AC0AAD0BEEFAEFFBA908121FD433
:1051B30074041208CC74081208CC7F0A02063B74EC
:1051C300F01203DD74FE12097B890A8A0C8B0D8CA5
:1051D300088D098518828519837400F0A37400F083
:1051E300A90A121F808A0E8B0FAE0EAF0FEE4F600F
:1051F3002EA818A919880E890F780E1208B9E4F59C
:105203000EF50F780E1208B97900AC08AD09AA0C97
:10521300AB0D8E828F8312055574041208CCE98579
:105223001882851983E0FAA3E0FB74021208CC7F8D
:105233000802063B74EC1203DD890C8A0A8B0B8C83
:10524300088D097414120BA5E0F510A3E0F5117491
:1052530016120BA5E0F50EA3E0F50FA90C121F80A3
:105263008A128B13AE12AF13E50E450F600D850E38
:1052730082850F837400F0A37400F0EE4F602278F0
:105283000E1208B978101208B97901AC08AD09AA51
:105293000AAB0B8E828F8312055574041208CC80DF
:1052A3000279C17F0C02063B74F01203DD890C8A7C
:1052B3000A8B0B8C088D09850882850983A3A3A318
:1052C300A3A3E0A2E45024A90C121F868A0E8B0F1D
:1052D300AE0EAF0FEE4F60137901AC08AD09AA0A09
:1052E300AB0B8E828F83120555800279007F0802F3
:1052F300063B74EC1203DD890B8A128B13ECFEED73
:10530300FF7414120BA5E0F508A3E0F5098E828F54
:1053130083A3A3A3A3A3E0A2E140030253BFEEFC34
:10532300EFFDAA12AB13A90B121FECE9F50AE50A6C
:1053330060030253C29016B8E0F8A3E0F9E84960AD
:1053430019AC08AD09EEFAEFFB9016B8E0F8A3E04C
:10535300F5838882120555E9605D85088285098396
:10536300A3A3A3E0FAA3E0FB8E828F83A3A3A3A34B
:10537300E0F9121FBC8A0C8B0D850C10850D11856D
:105383000882850983A3A3A3E0F50CA3E0F50D75BB
:105393000E00780C1208B5AC10AD118E828F83A36A
:1053A300A3A3A3A3A3E0FAA3E0FB121D1C7403129F
:1053B30008CC750A008008750A878003750A88A9D6
:1053C3000A7F0C02063B74EE1203DD89098A0C8BFB
:1053D3000DECFEEDFF7412120BA5E0F50EA3E0F544
:1053E3000F8E828F83A3A3A3A3A3E0A2E15066EE53
:1053F300FCEFFDAA0CAB0DA909121FECE9F508E5BA
:10540300087055A909121F808A108B1185100A850F
:10541300110BE50A450B6038E4F510F5117810120D
:1054230008B9780E1208B979028E828F83A3A3E09C
:10543300FCA3E0FD8E828F83E0FAA3E0FB850A8262
:10544300850B8312055574041208CCE9F50880080E
:105453007508C18003750888A9087F0A02063B7492
:10546300F01203DD890C8A0A8B0B8C088D098508E1
:1054730082850983A3A3A3A3A3E0A2E55024A90CD7
:10548300121F868A0E8B0FAE0EAF0FEE4F6013798D
:1054930002AC08AD09AA0AAB0B8E828F83120555A5
:1054A300800279007F0802063B74F21203DD8A084A
:1054B3008B09850882850983A3A3A3E0F8A3E0F9F8
:1054C300880A890B850882850983A3E02401FAA34E
:1054D300E03400FB121DF48A0C8B0DAE0CAF0DEE05
:1054E3004F607C850882850983A3E0F8A3E0F9E98E
:1054F300C313F9E813F8E8C0E08E828F83D0E0F09D
:105503007C008E828F83E0F8ECC3985052850A8228
:10551300850B83E0FA7B00850A82850B83A3E0F881
:105523007900E4C8F9EA28FAEB39FBECF87900E8EA
:1055330075F002A4C8ADF075F000A42DFD75F0025E
:10554300E9A42DF9EE28F582EF39F583A3EAF0A358
:10555300EBF0E50A2402F50A5002050B0C80A3EEDA
:10556300FAEFFB7F0602063B74E81203DD74FE12BA
:10557300097B8A168B17851682851783A3A3A3E05D
:10558300FEA3E0FF750F008518828519837400F070
:10559300A37400F0851682851783A3E0F8A3E0F9CE
:1055A300851682851783A3A3A3E028F8A3E039F91E
:1055B300C3EE98EF995068050FEE2402FE50010FD9
:1055C3008E828F83E0F50C8E828F83A3AE82AF83AE
:1055D300E50C70C08E828F83E0F50D8E828F83A3DE
:1055E300AE82AF83EEFAEFFBA90D121FBC8A088BC4
:1055F3000985080A85090BEE250AFEEF350BFFE541
:105603000AA2E05008050AE50A7002050B85188214
:10561300851983E0250AF0A3E0350BF00255977551
:10562300F006E50FA42401F513A813790085188269
:10563300851983E028FAA3E039FB121DF48A088B4D
:1056430009850814850915E5144515700302579A51
:10565300851682851783A3A3A3E0F8A3E0F9E8FEE8
:10566300E9FFA8137900E51428F8E51539F988103E
:105673008911E50FC0E0851482851583D0E0F075AC
:105683001200E512C3950F400302579AA81279003E
:10569300E875F006A4C8AAF075F000A42AFA75F01C
:1056A30006E9A42AF9E51428F582E51539F583A35B
:1056B3008582088583098E828F83E0FA7B008E8240
:1056C3008F83A3E0F87900E4C8F9EA28F8EB39F905
:1056D300850882850983E8F0A3E9F0EE2402FE50F1
:1056E300010F8E828F83E0C0E0850882850983A342
:1056F300A3D0E0F08E828F83A3AE82AF838508822E
:10570300850983A3A3E060030257958E828F83E00C
:10571300C0E0850882850983A3A3A3D0E0F08E822D
:105723008F83A3AE82AF83EEFAEFFB8508828509F0
:1057330083A3A3A3E0F9121FBC8A0C8B0D850C0A6B
:10574300850D0B8E0C8F0D750E00780C1208B5AC01
:105753000AAD0BAA10AB11121D1C74031208CC85E1
:105763000882850983A3A3A3A3E510F0A3E511F0A1
:10577300EE250AFEEF350BFFE50AA2E05008050A05
:10578300E50A7002050BE510250AF510E511350B46
:10579300F5110512025685AA14AB1574021208CC32
:1057A3007F1002063B74E81203DD74FE12097B8A44
:1057B300168B17851682851783A3A3A3E0FEA3E0A8
:1057C300FF7510008518828519837400F0A3740097
:1057D300F0851682851783A3E0F8A3E0F985168286
:1057E300851783A3A3A3E028F8A3E039F9C3EE98B0
:1057F300EF9950530510EE2402FE50010F8E828F55
:1058030083E0F50E8E828F83A3AE82AF83EEFAEF31
:10581300FBA90E121FBC8A0C8B0D850C08850D0984
:10582300EE2508FEEF3509FFE508A2E0500805085C
:10583300E50870020509851882851983E02508F0BB
:10584300A3E03509F0808A75F005E510A42401F57D
:1058530011A8117900851882851983E028FAA3E03D
:1058630039FB121DF48A0C8B0D850C12850D13E583
:105873001245137003025996851682851783A3A3D5
:10588300A3E0F8A3E0F9E8FEE9FFA8117900E51227
:1058930028F8E51339F9880A890BE510C0E0851269
:1058A30082851383D0E0F0750F00E50FC395104098
:1058B30003025996A80F7900E875F005A4C8AAF069
:1058C30075F000A42AFA75F005E9A42AF9E512286F
:1058D300F582E51339F583A38582148583158E82BA
:1058E3008F83E0FA7B008E828F83A3E0F87900E454
:1058F300C8F9EA28F8EB39F9851482851583E8F0AD
:10590300A3E9F0EE2402FE50010F8E828F83E0C0E4
:10591300E0851482851583A3A3D0E0F08E828F8364
:10592300A3AE82AF83EEFAEFFB851482851583A3C2
:10593300A3E0F9121FBC8A0C8B0D850C08850D0999
:105943008E0C8F0D750E00780C1208B5AC08AD09DE
:10595300AA0AAB0B121D1C74031208CC8514828592
:105963001583A3A3A3E50AF0A3E50BF0EE2508FE38
:10597300EF3509FFE508A2E050080508E5087002C5
:105983000509E50A2508F50AE50B3509F50B050FA9
:105993000258ADAA12AB1374021208CC7F10020690
:1059A3003B74F01203DD8A0A8B0B850A82850B8315
:1059B300A3A3A3E0F508A3E0F509750C00850A820B
:1059C300850B83A3E02401FAA3E03400FB121DF44A
:1059D3008A0E8B0FAE0EAF0FEE4F7003025AEA859D
:1059E3000A82850B83A3E064017004A3E064007062
:1059F30033850882850983E0C0E0A80C7900E87547
:105A0300F003A4C8AAF075F000A42AFA75F003E91C
:105A1300A42AF9EE28F582EF39F583A3D0E0F00547
:105A23000C025ADF850A82850B83A3E0F8A3E0F911
:105A3300850A82850B83A3A3A3E028F8A3E039F9A1
:105A4300C3E50898E509994003025ADF8508828572
:105A53000983E0C0E0A80C7900E875F003A4C8AAA4
:105A6300F075F000A42AFA75F003E9A42AF9EE28E8
:105A7300F582EF39F583A3D0E0F0850882850983A9
:105A8300A3858208858309850882850983E0FA7BDB
:105A930000850882850983A3E0F87900E4C8F9EA60
:105AA30028FAEB39FBA80C7900E875F003A4C8AC1D
:105AB300F075F000A42CFC75F003E9A42CF9EE2892
:105AC300F582EF39F583A3A3EAF0A3EBF0050CE528
:105AD300082402F50850020509025A27E50CC0E024
:105AE3008E828F83D0E0F0EEFAEFFB7F0802063B55
:105AF30074E81203DD8A148B15851482851583A33C
:105B0300A3A3E0FEA3E0FF75090075160075170057
:105B1300851482851583A3E0F8A3E0F985148285B3
:105B23001583A3A3A3E028F8A3E039F9C3EE98EF04
:105B3300994003025BBA05098E828F83E0F50A8ED2
